{
	"data": {
		"bytecode": {
			"linkReferences": {},
			"object": "60803461008d57601f612f5b38819003918201601f19168301916001600160401b0383118484101761009157808492604094855283398101031261008d57610052602061004b836100a5565b92016100a5565b600180546001600160a01b039384166001600160a01b03199182161790915560028054929093169116179055604051612ea190816100ba8239f35b5f80fd5b634e487b7160e01b5f52604160045260245ffd5b51906001600160a01b038216820361008d5756fe60806040526004361015610011575f80fd5b5f803560e01c908163017e7e58146100a757508063094b7415146100a25780631e3dd18b1461009d5780634b77fa8b14610098578063574f2ba3146100935780635eced4801461008e578063a2e74af614610089578063ae062d76146100845763f46901ed1461007f575f80fd5b610618565b6105f0565b61059b565b610539565b61051c565b61018a565b610104565b6100dc565b346100cb57806003193601126100cb57546001600160a01b03166080908152602090f35b80fd5b5f9103126100d857565b5f80fd5b346100d8575f3660031901126100d8576001546040516001600160a01b039091168152602090f35b346100d85760203660031901126100d8576004356004548110156100d85760045f527f8a35acfbc15ff81a39ae7d344fd709f28e8600b4aa8c65c6b64bfe7fe36bd19b01546040516001600160a01b039091168152602090f35b600435906001600160a01b03821682036100d857565b602435906001600160a01b03821682036100d857565b346100d85760a03660031901126100d8576101a361015e565b6101ab610174565b6044359160643590608435906101c03361075f565b6001600160a01b038181169390858116851461050a5786158015610502575b6104f057604080516301ffc9a760e01b8152636cdb3d1360e11b6004820152909560209491905f908690839060249082905afa9091816104c1575b506104ae5750955b81871693841580156104a4575b6104935761029661028a61027d886102708661025b8e60018060a01b03165f52600360205260405f2090565b9060018060a01b03165f5260205260405f2090565b905f5260205260405f2090565b546001600160a01b031690565b6001600160a01b031690565b610482576126f588836103036102ad8585016106d3565b948486528086019461077786396102f58b8d51948593840196879190604893916bffffffffffffffffffffffff19809260601b16845260601b16601483015260288201520190565b03601f19810183528261068e565b5190209151905ff59682881698893b156100d857875163344fe42d60e21b81526001600160a01b03838116600483015284166024820152604481018290526064810186905260848101889052995f908b9060a490829084905af194851561047d576104048a6103c98a6102706104609f976103e8856103c9857f8a38fca419462c383787e71f5b2d201679cb27d9a0b77168da94de03b0f077bf9f8e6104459e61027092610464575b506001600160a01b0387165f90815260036020526040902061025b565b80546001600160a01b0319166001600160a01b03909216919091179055565b6001600160a01b038a165f90815260036020526040902061025b565b61040d8a6106e3565b60045489516001600160a01b038c168152602081019990995260408901929092526060880152608087015291169390819060a0820190565b0390a3516001600160a01b0390911681529081906020820190565b0390f35b8061047161047792610675565b806100ce565b5f6103ac565b6106c8565b8651638e38f67360e01b8152600490fd5b8651630a4cd35b60e21b8152600490fd5b508282161561022f565b909690156104bc5795610222565b610222565b6104e2919250863d88116104e9575b6104da818361068e565b8101906106b0565b905f61021a565b503d6104d0565b6040516349ecd26760e11b8152600490fd5b5081156101df565b60405163e22b04c960e01b8152600490fd5b346100d8575f3660031901126100d8576020600454604051908152f35b346100d85760603660031901126100d857602061055461015e565b61058661055f610174565b6001600160a01b039283165f90815260038552604080822092851682526020929092522090565b6044355f52825260405f205416604051908152f35b346100d85760203660031901126100d8576105b461015e565b600154906001600160a01b039081831633036105de576001600160a01b0319909216911617600155005b6040516324ef589f60e01b8152600490fd5b346100d8575f3660031901126100d8576002546040516001600160a01b039091168152602090f35b346100d85760203660031901126100d85761063161015e565b6001546001600160a01b039190821633036105de57166bffffffffffffffffffffffff60a01b5f5416175f555f80f35b634e487b7160e01b5f52604160045260245ffd5b67ffffffffffffffff811161068957604052565b610661565b90601f8019910116810190811067ffffffffffffffff82111761068957604052565b908160209103126100d8575180151581036100d85790565b6040513d5f823e3d90fd5b906106e1604051928361068e565b565b6004546801000000000000000081101561068957600181018060045581101561074b5760045f527f8a35acfbc15ff81a39ae7d344fd709f28e8600b4aa8c65c6b64bfe7fe36bd19b0180546001600160a01b0319166001600160a01b03909216919091179055565b634e487b7160e01b5f52603260045260245ffd5b6002546001600160a01b039081169116036105de5756fe60808060405234620000eb576020816200001b600693620000ef565b82815201650a85a88e4caf60d31b815220600160206040516200003e81620000ef565b82815201603160f81b815220906040519160208301917f8b73c3c69bb8fe3d512ecc4cf759cc79239f7b179b0ffacaa9a75d522b39400f8352604084015260608301524660808301523060a083015260a0825260c082019180831060018060401b03841117620000d75760408390525190206003556001601055600580546001600160a01b031916331790556125e990816200010c8239f35b634e487b7160e01b5f52604160045260245ffd5b5f80fd5b604081019081106001600160401b03821117620000d75760405256fe6080604081815260049081361015610015575f80fd5b5f92833560e01c90816301ffc9a714611ad45750806306fdde0314611a965780630902f1ac14611a3d578063095ea7b314611a135780630dfe1681146119ea578063143ba4f3146117f8578063175ec2a3146117d957806318160ddd146117bc57806323b872dd1461172d57806330adf81f146116f2578063313ce567146116d65780633644e515146116b7578063443cb4bc1461168f5780635909c0d5146116705780635a3d5493146116515780635a76f25e146116265780636a627842146113675780636d9a640a14610fb257806370a0823114610f7a5780637464fc3d14610f5b5780637ecebe0014610f2557806388be4a7f14610f0657806389afcb4414610b6e57806395d89b4114610b2d578063a9059cbb14610afc578063b3cea21714610add578063ba9a7a5614610ac0578063bc197c8114610a36578063bc25cf77146108c3578063c45a01551461089a578063d13f90b414610815578063d21220a7146107ec578063d505accf146105ba578063dd62ed3e14610571578063f23a6e6114610517578063fcf2ce04146103005763fff6cae9146101b8575f80fd5b346102fc57826003193601126102fc576101d6600160105414611d04565b601083905560065481516370a0823160e01b81523084820152906020906001600160a01b039082908490602490829085165afa9283156102f25786936102c1575b50600754600b548551627eeac760e11b815230978101978852602088019190915295839287921690829081906040015b03915afa9283156102b857508492610282575b5061027a9250600c54916001600160701b03808460701c16931691611de4565b600160105580f35b90915082813d83116102b1575b6102998183611b3d565b810103126102ad5761027a9151905f61025a565b5f80fd5b503d61028f565b513d86823e3d90fd5b9092508181813d83116102eb575b6102d98183611b3d565b810103126102ad575191610247610217565b503d6102cf565b84513d88823e3d90fd5b8280fd5b5091903461051357826003193601126105135761031b611ba6565b9261032a600160105414611d04565b8260105560018060a01b038060055416948251809663570316bb60e11b825281866020998a935afa9081156102f25790839187916104e6575b501633036104d757604486836007541685519283809263e985e9c560e01b8252308a8301523360248301525afa9081156102f25786916104ba575b50156104ab5781169482516323b872dd60e01b8152338582015230602482015260243560448201528181606481898b5af180156102f25761047d575b50506007541691600b54600a5490843b156104795790606486928386519788948593637a94c56560e11b85523389860152602485015260448401525af1801561046f57610443575b600880546001600160a81b0319168617600160a01b17905560016010558380f35b67ffffffffffffffff831161045c5750525f8080610422565b634e487b7160e01b845260419052602483fd5b82513d86823e3d90fd5b8580fd5b8161049c92903d106104a4575b6104948183611b3d565b8101906120dc565b505f806103da565b503d61048a565b505051637ea0aea560e11b8152fd5b6104d19150873d89116104a4576104948183611b3d565b5f61039e565b50505163d2f85aeb60e01b8152fd5b6105069150883d8a1161050c575b6104fe8183611b3d565b810190611f24565b5f610363565b503d6104f4565b5080fd5b50823461056e5760a036600319011261056e57610532611ba6565b5061053b611bbc565b506084359067ffffffffffffffff821161056e575060209261055f91369101611c1b565b50505163f23a6e6160e01b8152f35b80fd5b8382346105135780600319360112610513578060209261058f611ba6565b610597611bbc565b6001600160a01b0391821683526002865283832091168252845220549051908152f35b509190346105135760e0366003190112610513576105d6611ba6565b6105de611bbc565b906044359260643560843560ff81168091036107e8574282106107b0576003549160018060a01b039182861693848a52856020528a8a20928354935f19851461079d57908493929160018e960190558451938760208601967f6e71edae12b1b97f4d1f60370fef10105fa2faae0126114a169c64845d6126c98852860152868b1660608601528b608086015260a085015260c084015260c0835260e0830167ffffffffffffffff948482108683111761078a57818e528451902061010085019261190160f01b8452610102860152610122850152604281526101608401948186109086111761077757848d52519020835261018082015260a4356101a082015260c4356101c090910152878052602090889060809060015afa1561076d57865116908115159182610763575b505015610720575061071d939450611c49565b80f35b606490602087519162461bcd60e51b8352820152601c60248201527f556e697377617056323a20494e56414c49445f5349474e4154555245000000006044820152fd5b1490505f8061070a565b87513d88823e3d90fd5b634e487b7160e01b8c526041885260248cfd5b634e487b7160e01b8d526041895260248dfd5b634e487b7160e01b8c526011885260248cfd5b875162461bcd60e51b81526020818501526012602482015271155b9a5cddd85c158c8e881156141254915160721b6044820152606490fd5b8680fd5b83823461051357816003193601126105135760075490516001600160a01b039091168152602090f35b50346102fc5760a03660031901126102fc5761082f611ba6565b91610838611bbc565b6005546001600160a01b0393919291908416330361088d575050816bffffffffffffffffffffffff60a01b931683600654161760065516906007541617600755604435600955606435600a55608435600b5580f35b5163d2f85aeb60e01b8152fd5b83823461051357816003193601126105135760055490516001600160a01b039091168152602090f35b5090346102fc5760209081600319360112610a32576108e0611ba6565b6108ee600160105414611d04565b601085905560065460075485516370a0823160e01b81523085820152956001600160a01b039182169590929091168187602481845afa968715610a285788976109f1575b509061095961098592856109536001600160701b039a8b600c541690612480565b916120f4565b600b548351627eeac760e11b815230968101968752602087018290529095909282918491829160400190565b0381895afa9283156109e8575087926109b8575b50506109b09061027a95600c5460701c1690612480565b923090612205565b90809250813d83116109e1575b6109cf8183611b3d565b810103126104795751846109b0610999565b503d6109c5565b513d89823e3d90fd5b918091975082813d8311610a21575b610a0a8183611b3d565b81010312610a1d57905195610959610932565b8780fd5b503d610a00565b83513d8a823e3d90fd5b8380fd5b50823461056e5760a036600319011261056e57610a51611ba6565b50610a5a611bbc565b5067ffffffffffffffff9060443582811161051357610a7c9036908601611bea565b505060643582811161051357610a959036908601611bea565b505060843591821161056e5750602092610ab191369101611c1b565b50505163bc197c8160e01b8152f35b838234610513578160031936011261051357602090516103e88152f35b838234610513578160031936011261051357602090600b549051908152f35b838234610513578060031936011261051357602090610b26610b1c611ba6565b6024359033611c9c565b5160018152f35b8382346105135781600319360112610513578051610b6a91610b4e82611b0d565b60058252640a888e4caf60db1b60208301525191829182611b5f565b0390f35b50919034610513576020806003193601126102fc57610b8b611ba6565b610b99600160105414611d04565b83601055610bbc600c546001600160701b0391828216928260701c169160e01c90565b5060065460075488516370a0823160e01b808252308983015290986001600160a01b03959194909390928616908616888b602481845afa9a8b15610e0057859b610ed3575b50600b548c51627eeac760e11b808252308d83019081526020810193909352909b9093918b908d9081906040010381855afa9b8c15610e4257879c610ea4575b5030875260018b528d87205497610c588787611f43565b9888549e8f90610c689083612510565b90610c7291611d40565b9e8f9e610c7f9083612510565b90610c8991611d40565b9d151580610e9b575b15610e4c57908f8f908f8f94908f610cf56024958f610d009530825260018b52610cbf8189842054612480565b30835260018c5288832055610cd5818354612480565b825587519081525f805160206125948339815191528b3092a3828c6120f4565b600b5490308a612205565b5180968193825230868301525afa928315610e4257918e918c938995610e0a575b50600b5492519586523090860190815260208101929092528491829081906040015b03915afa918215610e00578592610dc9575b50610d609450611de4565b610da6575b855191858352848484015216907fdccd412f0b1252819cb1fd330b93224ca42612892bb3f4f789976e6d81936496863392a360016010558351928352820152f35b610dc1600c546001600160701b03808260701c169116612510565b600f55610d65565b91509192938882813d8311610df9575b610de38183611b3d565b8101031261056e575051610d609392915f610d55565b503d610dd9565b8c513d87823e3d90fd5b92509290935081813d8311610e3b575b610e248183611b3d565b810103126107e85751918a918e9190610d43610d21565b503d610e1a565b8e513d89823e3d90fd5b8f5162461bcd60e51b81528084018e90526024808201527f54447265783a20494e53554646494349454e545f4c49515549444954595f42556044820152631493915160e21b6064820152608490fd5b508d1515610c92565b909b508a81813d8311610ecc575b610ebc8183611b3d565b810103126107e857519a5f610c41565b503d610eb2565b909a508881813d8311610eff575b610eeb8183611b3d565b81010312610efb5751995f610c01565b8480fd5b503d610ee1565b838234610513578160031936011261051357602090600a549051908152f35b5090346102fc5760203660031901126102fc5760209282916001600160a01b03610f4d611ba6565b168252845220549051908152f35b838234610513578160031936011261051357602090600f549051908152f35b8382346105135760203660031901126105135760209181906001600160a01b03610fa2611ba6565b1681526001845220549051908152f35b50346102fc5760603660031901126102fc578135602435906044359360018060a01b039384861695868103610a1d57610fef600160105414611d04565b8760105583159586809761135f575b61135057611021600c546001600160701b0391828216928260701c169160e01c90565b50916001600160701b0398898316948589101580611344575b611328578260065416926007541691838d14801561131f575b61130c57156112fc575b89806112e7575b505085519687926370a0823160e01b8452308285015283602460209a8b935afa918d83156112dc57908991936112ab575b600b548951627eeac760e11b81523085820190815260208101929092529550859190829081906040015b03915afa9283156112a1578d9361126e575b506110dc8987612393565b821115611267576110f66110f08a88612393565b83612393565b9a5b8516958d6111068c89612393565b85111590506112605761112261111c8c89612393565b85612393565b965b8c1580611258575b611248576111749061116e6111538f61114d611147896124d2565b916124f1565b90612480565b61116861115f896124d2565b61114d8d6124f1565b90612510565b92612510565b90620f42409182810292818404811482151715611233578304036111f957106111eb5750906111a4939291611de4565b600b54928251968752860152840152606083015260808201527fd8a2619bb81b7ab8223519302707bc92744bb4c9e8f4dff2f582d261953c54c960a03392a3600160105580f35b865163de92078f60e01b8152fd5b885162461bcd60e51b81528084018b9052601460248201527364732d6d6174682d6d756c2d6f766572666c6f7760601b6044820152606490fd5b5050634e487b7160e01b8f526011835260248ffd5b88516341f8d06560e11b81528390fd5b50871561112c565b8d96611124565b8c9a6110f8565b9092508781813d831161129a575b6112868183611b3d565b810103126112965751915f6110d1565b8c80fd5b503d61127c565b87513d8f823e3d90fd5b925083813d83116112d5575b6112c18183611b3d565b8101031261129657876110bf935192611095565b503d6112b7565b8851903d90823e3d90fd5b600b546112f5923085612205565b5f89611064565b6113078982856120f4565b61105d565b875160016235116560e11b031981528990fd5b50828d14611053565b6044888b8b8a5192639499bf7160e01b84528301526024820152fd5b508a85168a101561103a565b505051630f201e0960e01b8152fd5b508515610ffe565b50346102fc5760209182600319360112610a325760249293611387611ba6565b91611396600160105414611d04565b816010556113b9600c546001600160701b0391828216928260701c169160e01c90565b5060065486516370a0823160e01b81523085820152979192916001600160a01b03918a918a91829085165afa9788156115e95790899186996115f3575b50600754600b548951627eeac760e11b8152308189019081526020810192909252969594939287921690829081906040015b03915afa9384156115e95785946115ba575b506001600160701b0393848216986114528a82612480565b97868516956114618785612480565b9861146c8787611f43565b9781549d8e155f1461157c57505061148c6114878b8d612510565b6123c0565b6103e7198101908111611569578e82919e6114a690612419565b8255818052600181528d808320546114bd90612419565b90838052600183528320558d51906103e882525f8051602061259483398151915291a35b8b1561155b5750906114f98b6114fe96959493611d5e565b611de4565b61153d575b508251918252848201527f4c209b5fc8ad50758f13e2e1088ba56a560dff690a1c6fef26394f4c03821c4f823392a2600160105551908152f35b61155290600c5490808260701c169116612510565b600f555f611503565b8a516313cd809560e31b8152fd5b506011602492634e487b7160e01b835252fd5b906115958f949f6115a1938f61159a9261159591612510565b611d40565b948d612510565b9050808210156115b357505b9a6114e1565b90506115ad565b9093508881813d83116115e2575b6115d28183611b3d565b81010312610efb5751925f61143a565b503d6115c8565b87513d87823e3d90fd5b828193929a503d831161161f575b61160b8183611b3d565b81010312610efb57519688906114286113f6565b503d611601565b8382346105135781600319360112610513576020906001600160701b03600c5460701c169051908152f35b838234610513578160031936011261051357602090600e549051908152f35b838234610513578160031936011261051357602090600d549051908152f35b8382346105135781600319360112610513576020906001600160701b03600c54169051908152f35b8382346105135781600319360112610513576020906003549051908152f35b8382346105135781600319360112610513576020905160128152f35b838234610513578160031936011261051357602090517f6e71edae12b1b97f4d1f60370fef10105fa2faae0126114a169c64845d6126c98152f35b83823461051357606036600319011261051357610b2661174b611ba6565b611753611bbc565b6044359160018060a01b038116808752856020976002895281812033825289525f198282205403611787575b505050611c9c565b8281526002895281812033825289526117a38683832054612480565b928152600289528181203382528952205586858161177f565b838234610513578160031936011261051357602091549051908152f35b8382346105135781600319360112610513576020906009549051908152f35b50346102fc57806003193601126102fc5767ffffffffffffffff918035838111610efb5736602382011215610efb578082013593602461183786611bd2565b9261184486519485611b3d565b868452602096828886019160051b830101913683116119c3578301905b8282106119c75750505080359182116107e857366023830112156107e857818401359161188d83611bd2565b9261189a87519485611b3d565b808452828885019160051b830101913683116119c35783899101915b8383106119b3575050505060089060ff825460a01c16156119a3578351908351828103611988575050155b80156118eb578780f35b815461194c9088906001600160a01b039081169061190888612372565b51169061191487612372565b518a5163a9059cbb60e01b81526001600160a01b03909316838b0190815260208101919091529193849283918e918391604090910190565b03925af1801561197e57611961575b506118e1565b61197790883d8a116104a4576104948183611b3d565b505f61195b565b87513d8b823e3d90fd5b91869160449389519363963f39bf60e01b8552840152820152fd5b8551633ae4444960e11b81528590fd5b82358152918101918991016118b6565b8980fd5b81356001600160a01b03811681036119e6578152908801908801611861565b8a80fd5b83823461051357816003193601126105135760065490516001600160a01b039091168152602090f35b838234610513578060031936011261051357602090610b26611a33611ba6565b6024359033611c49565b50823461056e578060031936011261056e57606063ffffffff83611a76600c546001600160701b0391828216928260701c169160e01c90565b9093918351946001600160701b0380921686521660208501521690820152f35b8382346105135781600319360112610513578051610b6a91611ab782611b0d565b60068252650a85a88e4caf60d31b60208301525191829182611b5f565b849084346102fc5760203660031901126102fc5735916001600160e01b03198316830361056e5750611b076020926123a0565b15158152f35b6040810190811067ffffffffffffffff821117611b2957604052565b634e487b7160e01b5f52604160045260245ffd5b90601f8019910116810190811067ffffffffffffffff821117611b2957604052565b602080825282518183018190529093925f5b828110611b9257505060409293505f838284010152601f8019910116010190565b818101860151848201604001528501611b71565b600435906001600160a01b03821682036102ad57565b602435906001600160a01b03821682036102ad57565b67ffffffffffffffff8111611b295760051b60200190565b9181601f840112156102ad5782359167ffffffffffffffff83116102ad576020808501948460051b0101116102ad57565b9181601f840112156102ad5782359167ffffffffffffffff83116102ad57602083818601950101116102ad57565b909160207f8c5be1e5ebec7d5bd14f71427d1e84f3dd0314c0f7b2291e5b200ac8c7c3b9259160018060a01b0380941693845f526002835260405f20951694855f5282528060405f2055604051908152a3565b909160205f805160206125948339815191529160018060a01b03809416935f9585875260018452611cd1836040892054612480565b86885260018552604088205516948581526040611cf1838284205461246b565b91878152600185522055604051908152a3565b15611d0b57565b60405162461bcd60e51b815260206004820152600d60248201526c15111c995e0e881313d0d2d151609a1b6044820152606490fd5b8115611d4a570490565b634e487b7160e01b5f52601260045260245ffd5b5f8051602061259483398151915260205f92611d7b85855461246b565b845560018060a01b03169384845260018252611d9b81604086205461246b565b858552600183526040852055604051908152a3565b81810292918115918404141715611dc357565b634e487b7160e01b5f52601160045260245ffd5b91908201809211611dc357565b916001600160701b03908184118015611f1b575b611efd5763ffffffff93600c5460e01c8542160391858311611dc3577f1c411e9a96e071241c2f21f7726b17ae89e3cab4c78be50e062b03a9fffbbad19660409685941680151580611ef2575b80611ee7575b611e8e575b505050607093841b600160701b600160e01b031691169081174260e01b6001600160e01b03191617600c819055845191825290921c166020820152a1565b611edc92611ed4926001600160e01b0391611ebe9190611eb990611ecc611ec4878787858789612546565b612575565b16611db0565b600d54611dd7565b600d55612546565b600e54611dd7565b600e555f8080611e50565b508482161515611e4b565b508483161515611e45565b60448484604051916352939d7760e01b835260048301526024820152fd5b50818311611df8565b908160209103126102ad57516001600160a01b03811681036102ad5790565b600554604051622fcfcb60e31b815292939291906001600160a01b03906020908490600490829085165afa928315612092575f93612072575b508216151593600f5491855f146120625782611f99575b50505050565b611487611fb691611fbc936001600160701b038091169116612510565b916123c0565b90818111611fcb575b80611f93565b611fda5f546111688484612480565b90600581029080820460051481151715611dc35760058204036120265761200a926120049161246b565b90611d40565b80612016575b80611fc5565b61201f91611d5e565b5f80612010565b60405162461bcd60e51b815260206004820152601460248201527364732d6d6174682d6d756c2d6f766572666c6f7760601b6044820152606490fd5b5050905061206c57565b5f600f55565b61208b91935060203d811161050c576104fe8183611b3d565b915f611f7c565b6040513d5f823e3d90fd5b3d156120d7573d9067ffffffffffffffff8211611b2957604051916120cc601f8201601f191660200184611b3d565b82523d5f602084013e565b606090565b908160209103126102ad575180151581036102ad5790565b5f92918361216961217782957f7472616e7366657228616464726573732c75696e743235362900000000000000602060405161212f81611b0d565b60198152015260405163a9059cbb60e01b602082019081526001600160a01b03909616602482015260448101919091529182906064820190565b03601f198101835282611b3d565b51925af161218361209d565b816121d6575b501561219157565b60405162461bcd60e51b815260206004820152601c60248201527f54447265783a2045524332305f5452414e534645525f4641494c4544000000006044820152606490fd5b80518015925082156121eb575b50505f612189565b6121fe92506020809183010191016120dc565b5f806121e3565b90604094855194606086019567ffffffffffffffff9681811088821117611b29578852603781527f2c75696e743235362c75696e743235362c6279746573290000000000000000008860208301927f736166655472616e7366657246726f6d28616464726573732c6164647265737384520152603763ffffffff60e01b912016928751956020870194855260018060a01b0380921660248801521660448601526064850152608484015260a060a4840152600260c484015261060f60f31b60e484015260e4835261012083019383851090851117611b29575f8094938194875251925af16122f161209d565b81612343575b50156123005750565b5162461bcd60e51b815260206004820152601e60248201527f54447265783a20455243313135355f5452414e534645525f4641494c454400006044820152606490fd5b8051801592508215612358575b50505f6122f7565b61236b92506020809183010191016120dc565b5f80612350565b80511561237f5760200190565b634e487b7160e01b5f52603260045260245ffd5b91908203918211611dc357565b6001600160e01b0319166336372b0760e01b146123bb575f90565b600190565b905f600383111561240c57508160019080821c828101809111611dc35791905b8483106123ec57505050565b90919350612403846123fe8184611d40565b611dd7565b821c91906123e0565b9161241357565b60019150565b906103e8820191828111611dc357821061242f57565b60405162461bcd60e51b815260206004820152601460248201527364732d6d6174682d6164642d6f766572666c6f7760601b6044820152606490fd5b91906124779083611dd7565b91821061242f57565b919061248c9083612393565b91821161249557565b60405162461bcd60e51b815260206004820152601560248201527464732d6d6174682d7375622d756e646572666c6f7760581b6044820152606490fd5b906103e89182810292818404811482151715611dc35783040361202657565b90600382029180830460031481151715611dc357600383040361202657565b5f92918015918215612526575b50501561202657565b9150925061253e6125378483611db0565b9384611d40565b145f8061251d565b600160701b600160e01b03607082901b16906001600160701b0316808204600160701b1490151715611dc35790565b906001600160701b0316908115611d4a576001600160e01b0316049056feddf252ad1be2c89b69c2b068fc378daa952ba7f163c4a11628f55a4df523b3efa264697066735822122004b382aad216c52b5b739a9eb862de60adaa1febebbea706b3083da9d3a1734e64736f6c63430008150033a2646970667358221220eac1b5d82036ae013dd45caf6983e74ddf6f15a739cb3cffb26d59231b6518c464736f6c63430008150033",
			"opcodes": "PUSH1 0x80 CALLVALUE PUSH2 0x8D JUMPI PUSH1 0x1F PUSH2 0x2F5B CODESIZE DUP2 SWAP1 SUB SWAP2 DUP3 ADD PUSH1 0x1F NOT AND DUP4 ADD SWAP2 PUSH1 0x1 PUSH1 0x1 PUSH1 0x40 SHL SUB DUP4 GT DUP5 DUP5 LT OR PUSH2 0x91 JUMPI DUP1 DUP5 SWAP3 PUSH1 0x40 SWAP5 DUP6 MSTORE DUP4 CODECOPY DUP2 ADD SUB SLT PUSH2 0x8D JUMPI PUSH2 0x52 PUSH1 0x20 PUSH2 0x4B DUP4 PUSH2 0xA5 JUMP JUMPDEST SWAP3 ADD PUSH2 0xA5 JUMP JUMPDEST PUSH1 0x1 DUP1 SLOAD PUSH1 0x1 PUSH1 0x1 PUSH1 0xA0 SHL SUB SWAP4 DUP5 AND PUSH1 0x1 PUSH1 0x1 PUSH1 0xA0 SHL SUB NOT SWAP2 DUP3 AND OR SWAP1 SWAP2 SSTORE PUSH1 0x2 DUP1 SLOAD SWAP3 SWAP1 SWAP4 AND SWAP2 AND OR SWAP1 SSTORE PUSH1 0x40 MLOAD PUSH2 0x2EA1 SWAP1 DUP2 PUSH2 0xBA DUP3 CODECOPY RETURN JUMPDEST PUSH0 DUP1 REVERT JUMPDEST PUSH4 0x4E487B71 PUSH1 0xE0 SHL PUSH0 MSTORE PUSH1 0x41 PUSH1 0x4 MSTORE PUSH1 0x24 PUSH0 REVERT JUMPDEST MLOAD SWAP1 PUSH1 0x1 PUSH1 0x1 PUSH1 0xA0 SHL SUB DUP3 AND DUP3 SUB PUSH2 0x8D JUMPI JUMP INVALID PUSH1 0x80 PUSH1 0x40 MSTORE PUSH1 0x4 CALLDATASIZE LT ISZERO PUSH2 0x11 JUMPI PUSH0 DUP1 REVERT JUMPDEST PUSH0 DUP1 CALLDATALOAD PUSH1 0xE0 SHR SWAP1 DUP2 PUSH4 0x17E7E58 EQ PUSH2 0xA7 JUMPI POP DUP1 PUSH4 0x94B7415 EQ PUSH2 0xA2 JUMPI DUP1 PUSH4 0x1E3DD18B EQ PUSH2 0x9D JUMPI DUP1 PUSH4 0x4B77FA8B EQ PUSH2 0x98 JUMPI DUP1 PUSH4 0x574F2BA3 EQ PUSH2 0x93 JUMPI DUP1 PUSH4 0x5ECED480 EQ PUSH2 0x8E JUMPI DUP1 PUSH4 0xA2E74AF6 EQ PUSH2 0x89 JUMPI DUP1 PUSH4 0xAE062D76 EQ PUSH2 0x84 JUMPI PUSH4 0xF46901ED EQ PUSH2 0x7F JUMPI PUSH0 DUP1 REVERT JUMPDEST PUSH2 0x618 JUMP JUMPDEST PUSH2 0x5F0 JUMP JUMPDEST PUSH2 0x59B JUMP JUMPDEST PUSH2 0x539 JUMP JUMPDEST PUSH2 0x51C JUMP JUMPDEST PUSH2 0x18A JUMP JUMPDEST PUSH2 0x104 JUMP JUMPDEST PUSH2 0xDC JUMP JUMPDEST CALLVALUE PUSH2 0xCB JUMPI DUP1 PUSH1 0x3 NOT CALLDATASIZE ADD SLT PUSH2 0xCB JUMPI SLOAD PUSH1 0x1 PUSH1 0x1 PUSH1 0xA0 SHL SUB AND PUSH1 0x80 SWAP1 DUP2 MSTORE PUSH1 0x20 SWAP1 RETURN JUMPDEST DUP1 REVERT JUMPDEST PUSH0 SWAP2 SUB SLT PUSH2 0xD8 JUMPI JUMP JUMPDEST PUSH0 DUP1 REVERT JUMPDEST CALLVALUE PUSH2 0xD8 JUMPI PUSH0 CALLDATASIZE PUSH1 0x3 NOT ADD SLT PUSH2 0xD8 JUMPI PUSH1 0x1 SLOAD PUSH1 0x40 MLOAD PUSH1 0x1 PUSH1 0x1 PUSH1 0xA0 SHL SUB SWAP1 SWAP2 AND DUP2 MSTORE PUSH1 0x20 SWAP1 RETURN JUMPDEST CALLVALUE PUSH2 0xD8 JUMPI PUSH1 0x20 CALLDATASIZE PUSH1 0x3 NOT ADD SLT PUSH2 0xD8 JUMPI PUSH1 0x4 CALLDATALOAD PUSH1 0x4 SLOAD DUP2 LT ISZERO PUSH2 0xD8 JUMPI PUSH1 0x4 PUSH0 MSTORE PUSH32 0x8A35ACFBC15FF81A39AE7D344FD709F28E8600B4AA8C65C6B64BFE7FE36BD19B ADD SLOAD PUSH1 0x40 MLOAD PUSH1 0x1 PUSH1 0x1 PUSH1 0xA0 SHL SUB SWAP1 SWAP2 AND DUP2 MSTORE PUSH1 0x20 SWAP1 RETURN JUMPDEST PUSH1 0x4 CALLDATALOAD SWAP1 PUSH1 0x1 PUSH1 0x1 PUSH1 0xA0 SHL SUB DUP3 AND DUP3 SUB PUSH2 0xD8 JUMPI JUMP JUMPDEST PUSH1 0x24 CALLDATALOAD SWAP1 PUSH1 0x1 PUSH1 0x1 PUSH1 0xA0 SHL SUB DUP3 AND DUP3 SUB PUSH2 0xD8 JUMPI JUMP JUMPDEST CALLVALUE PUSH2 0xD8 JUMPI PUSH1 0xA0 CALLDATASIZE PUSH1 0x3 NOT ADD SLT PUSH2 0xD8 JUMPI PUSH2 0x1A3 PUSH2 0x15E JUMP JUMPDEST PUSH2 0x1AB PUSH2 0x174 JUMP JUMPDEST PUSH1 0x44 CALLDATALOAD SWAP2 PUSH1 0x64 CALLDATALOAD SWAP1 PUSH1 0x84 CALLDATALOAD SWAP1 PUSH2 0x1C0 CALLER PUSH2 0x75F JUMP JUMPDEST PUSH1 0x1 PUSH1 0x1 PUSH1 0xA0 SHL SUB DUP2 DUP2 AND SWAP4 SWAP1 DUP6 DUP2 AND DUP6 EQ PUSH2 0x50A JUMPI DUP7 ISZERO DUP1 ISZERO PUSH2 0x502 JUMPI JUMPDEST PUSH2 0x4F0 JUMPI PUSH1 0x40 DUP1 MLOAD PUSH4 0x1FFC9A7 PUSH1 0xE0 SHL DUP2 MSTORE PUSH4 0x6CDB3D13 PUSH1 0xE1 SHL PUSH1 0x4 DUP3 ADD MSTORE SWAP1 SWAP6 PUSH1 0x20 SWAP5 SWAP2 SWAP1 PUSH0 SWAP1 DUP7 SWAP1 DUP4 SWAP1 PUSH1 0x24 SWAP1 DUP3 SWAP1 GAS STATICCALL SWAP1 SWAP2 DUP2 PUSH2 0x4C1 JUMPI JUMPDEST POP PUSH2 0x4AE JUMPI POP SWAP6 JUMPDEST DUP2 DUP8 AND SWAP4 DUP5 ISZERO DUP1 ISZERO PUSH2 0x4A4 JUMPI JUMPDEST PUSH2 0x493 JUMPI PUSH2 0x296 PUSH2 0x28A PUSH2 0x27D DUP9 PUSH2 0x270 DUP7 PUSH2 0x25B DUP15 PUSH1 0x1 DUP1 PUSH1 0xA0 SHL SUB AND PUSH0 MSTORE PUSH1 0x3 PUSH1 0x20 MSTORE PUSH1 0x40 PUSH0 KECCAK256 SWAP1 JUMP JUMPDEST SWAP1 PUSH1 0x1 DUP1 PUSH1 0xA0 SHL SUB AND PUSH0 MSTORE PUSH1 0x20 MSTORE PUSH1 0x40 PUSH0 KECCAK256 SWAP1 JUMP JUMPDEST SWAP1 PUSH0 MSTORE PUSH1 0x20 MSTORE PUSH1 0x40 PUSH0 KECCAK256 SWAP1 JUMP JUMPDEST SLOAD PUSH1 0x1 PUSH1 0x1 PUSH1 0xA0 SHL SUB AND SWAP1 JUMP JUMPDEST PUSH1 0x1 PUSH1 0x1 PUSH1 0xA0 SHL SUB AND SWAP1 JUMP JUMPDEST PUSH2 0x482 JUMPI PUSH2 0x26F5 DUP9 DUP4 PUSH2 0x303 PUSH2 0x2AD DUP6 DUP6 ADD PUSH2 0x6D3 JUMP JUMPDEST SWAP5 DUP5 DUP7 MSTORE DUP1 DUP7 ADD SWAP5 PUSH2 0x777 DUP7 CODECOPY PUSH2 0x2F5 DUP12 DUP14 MLOAD SWAP5 DUP6 SWAP4 DUP5 ADD SWAP7 DUP8 SWAP2 SWAP1 PUSH1 0x48 SWAP4 SWAP2 PUSH12 0xFFFFFFFFFFFFFFFFFFFFFFFF NOT DUP1 SWAP3 PUSH1 0x60 SHL AND DUP5 MSTORE PUSH1 0x60 SHL AND PUSH1 0x14 DUP4 ADD MSTORE PUSH1 0x28 DUP3 ADD MSTORE ADD SWAP1 JUMP JUMPDEST SUB PUSH1 0x1F NOT DUP2 ADD DUP4 MSTORE DUP3 PUSH2 0x68E JUMP JUMPDEST MLOAD SWAP1 KECCAK256 SWAP2 MLOAD SWAP1 PUSH0 CREATE2 SWAP7 DUP3 DUP9 AND SWAP9 DUP10 EXTCODESIZE ISZERO PUSH2 0xD8 JUMPI DUP8 MLOAD PUSH4 0x344FE42D PUSH1 0xE2 SHL DUP2 MSTORE PUSH1 0x1 PUSH1 0x1 PUSH1 0xA0 SHL SUB DUP4 DUP2 AND PUSH1 0x4 DUP4 ADD MSTORE DUP5 AND PUSH1 0x24 DUP3 ADD MSTORE PUSH1 0x44 DUP2 ADD DUP3 SWAP1 MSTORE PUSH1 0x64 DUP2 ADD DUP7 SWAP1 MSTORE PUSH1 0x84 DUP2 ADD DUP9 SWAP1 MSTORE SWAP10 PUSH0 SWAP1 DUP12 SWAP1 PUSH1 0xA4 SWAP1 DUP3 SWAP1 DUP5 SWAP1 GAS CALL SWAP5 DUP6 ISZERO PUSH2 0x47D JUMPI PUSH2 0x404 DUP11 PUSH2 0x3C9 DUP11 PUSH2 0x270 PUSH2 0x460 SWAP16 SWAP8 PUSH2 0x3E8 DUP6 PUSH2 0x3C9 DUP6 PUSH32 0x8A38FCA419462C383787E71F5B2D201679CB27D9A0B77168DA94DE03B0F077BF SWAP16 DUP15 PUSH2 0x445 SWAP15 PUSH2 0x270 SWAP3 PUSH2 0x464 JUMPI JUMPDEST POP PUSH1 0x1 PUSH1 0x1 PUSH1 0xA0 SHL SUB DUP8 AND PUSH0 SWAP1 DUP2 MSTORE PUSH1 0x3 PUSH1 0x20 MSTORE PUSH1 0x40 SWAP1 KECCAK256 PUSH2 0x25B JUMP JUMPDEST DUP1 SLOAD PUSH1 0x1 PUSH1 0x1 PUSH1 0xA0 SHL SUB NOT AND PUSH1 0x1 PUSH1 0x1 PUSH1 0xA0 SHL SUB SWAP1 SWAP3 AND SWAP2 SWAP1 SWAP2 OR SWAP1 SSTORE JUMP JUMPDEST PUSH1 0x1 PUSH1 0x1 PUSH1 0xA0 SHL SUB DUP11 AND PUSH0 SWAP1 DUP2 MSTORE PUSH1 0x3 PUSH1 0x20 MSTORE PUSH1 0x40 SWAP1 KECCAK256 PUSH2 0x25B JUMP JUMPDEST PUSH2 0x40D DUP11 PUSH2 0x6E3 JUMP JUMPDEST PUSH1 0x4 SLOAD DUP10 MLOAD PUSH1 0x1 PUSH1 0x1 PUSH1 0xA0 SHL SUB DUP13 AND DUP2 MSTORE PUSH1 0x20 DUP2 ADD SWAP10 SWAP1 SWAP10 MSTORE PUSH1 0x40 DUP10 ADD SWAP3 SWAP1 SWAP3 MSTORE PUSH1 0x60 DUP9 ADD MSTORE PUSH1 0x80 DUP8 ADD MSTORE SWAP2 AND SWAP4 SWAP1 DUP2 SWAP1 PUSH1 0xA0 DUP3 ADD SWAP1 JUMP JUMPDEST SUB SWAP1 LOG3 MLOAD PUSH1 0x1 PUSH1 0x1 PUSH1 0xA0 SHL SUB SWAP1 SWAP2 AND DUP2 MSTORE SWAP1 DUP2 SWAP1 PUSH1 0x20 DUP3 ADD SWAP1 JUMP JUMPDEST SUB SWAP1 RETURN JUMPDEST DUP1 PUSH2 0x471 PUSH2 0x477 SWAP3 PUSH2 0x675 JUMP JUMPDEST DUP1 PUSH2 0xCE JUMP JUMPDEST PUSH0 PUSH2 0x3AC JUMP JUMPDEST PUSH2 0x6C8 JUMP JUMPDEST DUP7 MLOAD PUSH4 0x8E38F673 PUSH1 0xE0 SHL DUP2 MSTORE PUSH1 0x4 SWAP1 REVERT JUMPDEST DUP7 MLOAD PUSH4 0xA4CD35B PUSH1 0xE2 SHL DUP2 MSTORE PUSH1 0x4 SWAP1 REVERT JUMPDEST POP DUP3 DUP3 AND ISZERO PUSH2 0x22F JUMP JUMPDEST SWAP1 SWAP7 SWAP1 ISZERO PUSH2 0x4BC JUMPI SWAP6 PUSH2 0x222 JUMP JUMPDEST PUSH2 0x222 JUMP JUMPDEST PUSH2 0x4E2 SWAP2 SWAP3 POP DUP7 RETURNDATASIZE DUP9 GT PUSH2 0x4E9 JUMPI JUMPDEST PUSH2 0x4DA DUP2 DUP4 PUSH2 0x68E JUMP JUMPDEST DUP2 ADD SWAP1 PUSH2 0x6B0 JUMP JUMPDEST SWAP1 PUSH0 PUSH2 0x21A JUMP JUMPDEST POP RETURNDATASIZE PUSH2 0x4D0 JUMP JUMPDEST PUSH1 0x40 MLOAD PUSH4 0x49ECD267 PUSH1 0xE1 SHL DUP2 MSTORE PUSH1 0x4 SWAP1 REVERT JUMPDEST POP DUP2 ISZERO PUSH2 0x1DF JUMP JUMPDEST PUSH1 0x40 MLOAD PUSH4 0xE22B04C9 PUSH1 0xE0 SHL DUP2 MSTORE PUSH1 0x4 SWAP1 REVERT JUMPDEST CALLVALUE PUSH2 0xD8 JUMPI PUSH0 CALLDATASIZE PUSH1 0x3 NOT ADD SLT PUSH2 0xD8 JUMPI PUSH1 0x20 PUSH1 0x4 SLOAD PUSH1 0x40 MLOAD SWAP1 DUP2 MSTORE RETURN JUMPDEST CALLVALUE PUSH2 0xD8 JUMPI PUSH1 0x60 CALLDATASIZE PUSH1 0x3 NOT ADD SLT PUSH2 0xD8 JUMPI PUSH1 0x20 PUSH2 0x554 PUSH2 0x15E JUMP JUMPDEST PUSH2 0x586 PUSH2 0x55F PUSH2 0x174 JUMP JUMPDEST PUSH1 0x1 PUSH1 0x1 PUSH1 0xA0 SHL SUB SWAP3 DUP4 AND PUSH0 SWAP1 DUP2 MSTORE PUSH1 0x3 DUP6 MSTORE PUSH1 0x40 DUP1 DUP3 KECCAK256 SWAP3 DUP6 AND DUP3 MSTORE PUSH1 0x20 SWAP3 SWAP1 SWAP3 MSTORE KECCAK256 SWAP1 JUMP JUMPDEST PUSH1 0x44 CALLDATALOAD PUSH0 MSTORE DUP3 MSTORE PUSH1 0x40 PUSH0 KECCAK256 SLOAD AND PUSH1 0x40 MLOAD SWAP1 DUP2 MSTORE RETURN JUMPDEST CALLVALUE PUSH2 0xD8 JUMPI PUSH1 0x20 CALLDATASIZE PUSH1 0x3 NOT ADD SLT PUSH2 0xD8 JUMPI PUSH2 0x5B4 PUSH2 0x15E JUMP JUMPDEST PUSH1 0x1 SLOAD SWAP1 PUSH1 0x1 PUSH1 0x1 PUSH1 0xA0 SHL SUB SWAP1 DUP2 DUP4 AND CALLER SUB PUSH2 0x5DE JUMPI PUSH1 0x1 PUSH1 0x1 PUSH1 0xA0 SHL SUB NOT SWAP1 SWAP3 AND SWAP2 AND OR PUSH1 0x1 SSTORE STOP JUMPDEST PUSH1 0x40 MLOAD PUSH4 0x24EF589F PUSH1 0xE0 SHL DUP2 MSTORE PUSH1 0x4 SWAP1 REVERT JUMPDEST CALLVALUE PUSH2 0xD8 JUMPI PUSH0 CALLDATASIZE PUSH1 0x3 NOT ADD SLT PUSH2 0xD8 JUMPI PUSH1 0x2 SLOAD PUSH1 0x40 MLOAD PUSH1 0x1 PUSH1 0x1 PUSH1 0xA0 SHL SUB SWAP1 SWAP2 AND DUP2 MSTORE PUSH1 0x20 SWAP1 RETURN JUMPDEST CALLVALUE PUSH2 0xD8 JUMPI PUSH1 0x20 CALLDATASIZE PUSH1 0x3 NOT ADD SLT PUSH2 0xD8 JUMPI PUSH2 0x631 PUSH2 0x15E JUMP JUMPDEST PUSH1 0x1 SLOAD PUSH1 0x1 PUSH1 0x1 PUSH1 0xA0 SHL SUB SWAP2 SWAP1 DUP3 AND CALLER SUB PUSH2 0x5DE JUMPI AND PUSH12 0xFFFFFFFFFFFFFFFFFFFFFFFF PUSH1 0xA0 SHL PUSH0 SLOAD AND OR PUSH0 SSTORE PUSH0 DUP1 RETURN JUMPDEST PUSH4 0x4E487B71 PUSH1 0xE0 SHL PUSH0 MSTORE PUSH1 0x41 PUSH1 0x4 MSTORE PUSH1 0x24 PUSH0 REVERT JUMPDEST PUSH8 0xFFFFFFFFFFFFFFFF DUP2 GT PUSH2 0x689 JUMPI PUSH1 0x40 MSTORE JUMP JUMPDEST PUSH2 0x661 JUMP JUMPDEST SWAP1 PUSH1 0x1F DUP1 NOT SWAP2 ADD AND DUP2 ADD SWAP1 DUP2 LT PUSH8 0xFFFFFFFFFFFFFFFF DUP3 GT OR PUSH2 0x689 JUMPI PUSH1 0x40 MSTORE JUMP JUMPDEST SWAP1 DUP2 PUSH1 0x20 SWAP2 SUB SLT PUSH2 0xD8 JUMPI MLOAD DUP1 ISZERO ISZERO DUP2 SUB PUSH2 0xD8 JUMPI SWAP1 JUMP JUMPDEST PUSH1 0x40 MLOAD RETURNDATASIZE PUSH0 DUP3 RETURNDATACOPY RETURNDATASIZE SWAP1 REVERT JUMPDEST SWAP1 PUSH2 0x6E1 PUSH1 0x40 MLOAD SWAP3 DUP4 PUSH2 0x68E JUMP JUMPDEST JUMP JUMPDEST PUSH1 0x4 SLOAD PUSH9 0x10000000000000000 DUP2 LT ISZERO PUSH2 0x689 JUMPI PUSH1 0x1 DUP2 ADD DUP1 PUSH1 0x4 SSTORE DUP2 LT ISZERO PUSH2 0x74B JUMPI PUSH1 0x4 PUSH0 MSTORE PUSH32 0x8A35ACFBC15FF81A39AE7D344FD709F28E8600B4AA8C65C6B64BFE7FE36BD19B ADD DUP1 SLOAD PUSH1 0x1 PUSH1 0x1 PUSH1 0xA0 SHL SUB NOT AND PUSH1 0x1 PUSH1 0x1 PUSH1 0xA0 SHL SUB SWAP1 SWAP3 AND SWAP2 SWAP1 SWAP2 OR SWAP1 SSTORE JUMP JUMPDEST PUSH4 0x4E487B71 PUSH1 0xE0 SHL PUSH0 MSTORE PUSH1 0x32 PUSH1 0x4 MSTORE PUSH1 0x24 PUSH0 REVERT JUMPDEST PUSH1 0x2 SLOAD PUSH1 0x1 PUSH1 0x1 PUSH1 0xA0 SHL SUB SWAP1 DUP2 AND SWAP2 AND SUB PUSH2 0x5DE JUMPI JUMP INVALID PUSH1 0x80 DUP1 PUSH1 0x40 MSTORE CALLVALUE PUSH3 0xEB JUMPI PUSH1 0x20 DUP2 PUSH3 0x1B PUSH1 0x6 SWAP4 PUSH3 0xEF JUMP JUMPDEST DUP3 DUP2 MSTORE ADD PUSH6 0xA85A88E4CAF PUSH1 0xD3 SHL DUP2 MSTORE KECCAK256 PUSH1 0x1 PUSH1 0x20 PUSH1 0x40 MLOAD PUSH3 0x3E DUP2 PUSH3 0xEF JUMP JUMPDEST DUP3 DUP2 MSTORE ADD PUSH1 0x31 PUSH1 0xF8 SHL DUP2 MSTORE KECCAK256 SWAP1 PUSH1 0x40 MLOAD SWAP2 PUSH1 0x20 DUP4 ADD SWAP2 PUSH32 0x8B73C3C69BB8FE3D512ECC4CF759CC79239F7B179B0FFACAA9A75D522B39400F DUP4 MSTORE PUSH1 0x40 DUP5 ADD MSTORE PUSH1 0x60 DUP4 ADD MSTORE CHAINID PUSH1 0x80 DUP4 ADD MSTORE ADDRESS PUSH1 0xA0 DUP4 ADD MSTORE PUSH1 0xA0 DUP3 MSTORE PUSH1 0xC0 DUP3 ADD SWAP2 DUP1 DUP4 LT PUSH1 0x1 DUP1 PUSH1 0x40 SHL SUB DUP5 GT OR PUSH3 0xD7 JUMPI PUSH1 0x40 DUP4 SWAP1 MSTORE MLOAD SWAP1 KECCAK256 PUSH1 0x3 SSTORE PUSH1 0x1 PUSH1 0x10 SSTORE PUSH1 0x5 DUP1 SLOAD PUSH1 0x1 PUSH1 0x1 PUSH1 0xA0 SHL SUB NOT AND CALLER OR SWAP1 SSTORE PUSH2 0x25E9 SWAP1 DUP2 PUSH3 0x10C DUP3 CODECOPY RETURN JUMPDEST PUSH4 0x4E487B71 PUSH1 0xE0 SHL PUSH0 MSTORE PUSH1 0x41 PUSH1 0x4 MSTORE PUSH1 0x24 PUSH0 REVERT JUMPDEST PUSH0 DUP1 REVERT JUMPDEST PUSH1 0x40 DUP2 ADD SWAP1 DUP2 LT PUSH1 0x1 PUSH1 0x1 PUSH1 0x40 SHL SUB DUP3 GT OR PUSH3 0xD7 JUMPI PUSH1 0x40 MSTORE JUMP INVALID PUSH1 0x80 PUSH1 0x40 DUP2 DUP2 MSTORE PUSH1 0x4 SWAP1 DUP2 CALLDATASIZE LT ISZERO PUSH2 0x15 JUMPI PUSH0 DUP1 REVERT JUMPDEST PUSH0 SWAP3 DUP4 CALLDATALOAD PUSH1 0xE0 SHR SWAP1 DUP2 PUSH4 0x1FFC9A7 EQ PUSH2 0x1AD4 JUMPI POP DUP1 PUSH4 0x6FDDE03 EQ PUSH2 0x1A96 JUMPI DUP1 PUSH4 0x902F1AC EQ PUSH2 0x1A3D JUMPI DUP1 PUSH4 0x95EA7B3 EQ PUSH2 0x1A13 JUMPI DUP1 PUSH4 0xDFE1681 EQ PUSH2 0x19EA JUMPI DUP1 PUSH4 0x143BA4F3 EQ PUSH2 0x17F8 JUMPI DUP1 PUSH4 0x175EC2A3 EQ PUSH2 0x17D9 JUMPI DUP1 PUSH4 0x18160DDD EQ PUSH2 0x17BC JUMPI DUP1 PUSH4 0x23B872DD EQ PUSH2 0x172D JUMPI DUP1 PUSH4 0x30ADF81F EQ PUSH2 0x16F2 JUMPI DUP1 PUSH4 0x313CE567 EQ PUSH2 0x16D6 JUMPI DUP1 PUSH4 0x3644E515 EQ PUSH2 0x16B7 JUMPI DUP1 PUSH4 0x443CB4BC EQ PUSH2 0x168F JUMPI DUP1 PUSH4 0x5909C0D5 EQ PUSH2 0x1670 JUMPI DUP1 PUSH4 0x5A3D5493 EQ PUSH2 0x1651 JUMPI DUP1 PUSH4 0x5A76F25E EQ PUSH2 0x1626 JUMPI DUP1 PUSH4 0x6A627842 EQ PUSH2 0x1367 JUMPI DUP1 PUSH4 0x6D9A640A EQ PUSH2 0xFB2 JUMPI DUP1 PUSH4 0x70A08231 EQ PUSH2 0xF7A JUMPI DUP1 PUSH4 0x7464FC3D EQ PUSH2 0xF5B JUMPI DUP1 PUSH4 0x7ECEBE00 EQ PUSH2 0xF25 JUMPI DUP1 PUSH4 0x88BE4A7F EQ PUSH2 0xF06 JUMPI DUP1 PUSH4 0x89AFCB44 EQ PUSH2 0xB6E JUMPI DUP1 PUSH4 0x95D89B41 EQ PUSH2 0xB2D JUMPI DUP1 PUSH4 0xA9059CBB EQ PUSH2 0xAFC JUMPI DUP1 PUSH4 0xB3CEA217 EQ PUSH2 0xADD JUMPI DUP1 PUSH4 0xBA9A7A56 EQ PUSH2 0xAC0 JUMPI DUP1 PUSH4 0xBC197C81 EQ PUSH2 0xA36 JUMPI DUP1 PUSH4 0xBC25CF77 EQ PUSH2 0x8C3 JUMPI DUP1 PUSH4 0xC45A0155 EQ PUSH2 0x89A JUMPI DUP1 PUSH4 0xD13F90B4 EQ PUSH2 0x815 JUMPI DUP1 PUSH4 0xD21220A7 EQ PUSH2 0x7EC JUMPI DUP1 PUSH4 0xD505ACCF EQ PUSH2 0x5BA JUMPI DUP1 PUSH4 0xDD62ED3E EQ PUSH2 0x571 JUMPI DUP1 PUSH4 0xF23A6E61 EQ PUSH2 0x517 JUMPI DUP1 PUSH4 0xFCF2CE04 EQ PUSH2 0x300 JUMPI PUSH4 0xFFF6CAE9 EQ PUSH2 0x1B8 JUMPI PUSH0 DUP1 REVERT JUMPDEST CALLVALUE PUSH2 0x2FC JUMPI DUP3 PUSH1 0x3 NOT CALLDATASIZE ADD SLT PUSH2 0x2FC JUMPI PUSH2 0x1D6 PUSH1 0x1 PUSH1 0x10 SLOAD EQ PUSH2 0x1D04 JUMP JUMPDEST PUSH1 0x10 DUP4 SWAP1 SSTORE PUSH1 0x6 SLOAD DUP2 MLOAD PUSH4 0x70A08231 PUSH1 0xE0 SHL DUP2 MSTORE ADDRESS DUP5 DUP3 ADD MSTORE SWAP1 PUSH1 0x20 SWAP1 PUSH1 0x1 PUSH1 0x1 PUSH1 0xA0 SHL SUB SWAP1 DUP3 SWAP1 DUP5 SWAP1 PUSH1 0x24 SWAP1 DUP3 SWAP1 DUP6 AND GAS STATICCALL SWAP3 DUP4 ISZERO PUSH2 0x2F2 JUMPI DUP7 SWAP4 PUSH2 0x2C1 JUMPI JUMPDEST POP PUSH1 0x7 SLOAD PUSH1 0xB SLOAD DUP6 MLOAD PUSH3 0x7EEAC7 PUSH1 0xE1 SHL DUP2 MSTORE ADDRESS SWAP8 DUP2 ADD SWAP8 DUP9 MSTORE PUSH1 0x20 DUP9 ADD SWAP2 SWAP1 SWAP2 MSTORE SWAP6 DUP4 SWAP3 DUP8 SWAP3 AND SWAP1 DUP3 SWAP1 DUP2 SWAP1 PUSH1 0x40 ADD JUMPDEST SUB SWAP2 GAS STATICCALL SWAP3 DUP4 ISZERO PUSH2 0x2B8 JUMPI POP DUP5 SWAP3 PUSH2 0x282 JUMPI JUMPDEST POP PUSH2 0x27A SWAP3 POP PUSH1 0xC SLOAD SWAP2 PUSH1 0x1 PUSH1 0x1 PUSH1 0x70 SHL SUB DUP1 DUP5 PUSH1 0x70 SHR AND SWAP4 AND SWAP2 PUSH2 0x1DE4 JUMP JUMPDEST PUSH1 0x1 PUSH1 0x10 SSTORE DUP1 RETURN JUMPDEST SWAP1 SWAP2 POP DUP3 DUP2 RETURNDATASIZE DUP4 GT PUSH2 0x2B1 JUMPI JUMPDEST PUSH2 0x299 DUP2 DUP4 PUSH2 0x1B3D JUMP JUMPDEST DUP2 ADD SUB SLT PUSH2 0x2AD JUMPI PUSH2 0x27A SWAP2 MLOAD SWAP1 PUSH0 PUSH2 0x25A JUMP JUMPDEST PUSH0 DUP1 REVERT JUMPDEST POP RETURNDATASIZE PUSH2 0x28F JUMP JUMPDEST MLOAD RETURNDATASIZE DUP7 DUP3 RETURNDATACOPY RETURNDATASIZE SWAP1 REVERT JUMPDEST SWAP1 SWAP3 POP DUP2 DUP2 DUP2 RETURNDATASIZE DUP4 GT PUSH2 0x2EB JUMPI JUMPDEST PUSH2 0x2D9 DUP2 DUP4 PUSH2 0x1B3D JUMP JUMPDEST DUP2 ADD SUB SLT PUSH2 0x2AD JUMPI MLOAD SWAP2 PUSH2 0x247 PUSH2 0x217 JUMP JUMPDEST POP RETURNDATASIZE PUSH2 0x2CF JUMP JUMPDEST DUP5 MLOAD RETURNDATASIZE DUP9 DUP3 RETURNDATACOPY RETURNDATASIZE SWAP1 REVERT JUMPDEST DUP3 DUP1 REVERT JUMPDEST POP SWAP2 SWAP1 CALLVALUE PUSH2 0x513 JUMPI DUP3 PUSH1 0x3 NOT CALLDATASIZE ADD SLT PUSH2 0x513 JUMPI PUSH2 0x31B PUSH2 0x1BA6 JUMP JUMPDEST SWAP3 PUSH2 0x32A PUSH1 0x1 PUSH1 0x10 SLOAD EQ PUSH2 0x1D04 JUMP JUMPDEST DUP3 PUSH1 0x10 SSTORE PUSH1 0x1 DUP1 PUSH1 0xA0 SHL SUB DUP1 PUSH1 0x5 SLOAD AND SWAP5 DUP3 MLOAD DUP1 SWAP7 PUSH4 0x570316BB PUSH1 0xE1 SHL DUP3 MSTORE DUP2 DUP7 PUSH1 0x20 SWAP10 DUP11 SWAP4 GAS STATICCALL SWAP1 DUP2 ISZERO PUSH2 0x2F2 JUMPI SWAP1 DUP4 SWAP2 DUP8 SWAP2 PUSH2 0x4E6 JUMPI JUMPDEST POP AND CALLER SUB PUSH2 0x4D7 JUMPI PUSH1 0x44 DUP7 DUP4 PUSH1 0x7 SLOAD AND DUP6 MLOAD SWAP3 DUP4 DUP1 SWAP3 PUSH4 0xE985E9C5 PUSH1 0xE0 SHL DUP3 MSTORE ADDRESS DUP11 DUP4 ADD MSTORE CALLER PUSH1 0x24 DUP4 ADD MSTORE GAS STATICCALL SWAP1 DUP2 ISZERO PUSH2 0x2F2 JUMPI DUP7 SWAP2 PUSH2 0x4BA JUMPI JUMPDEST POP ISZERO PUSH2 0x4AB JUMPI DUP2 AND SWAP5 DUP3 MLOAD PUSH4 0x23B872DD PUSH1 0xE0 SHL DUP2 MSTORE CALLER DUP6 DUP3 ADD MSTORE ADDRESS PUSH1 0x24 DUP3 ADD MSTORE PUSH1 0x24 CALLDATALOAD PUSH1 0x44 DUP3 ADD MSTORE DUP2 DUP2 PUSH1 0x64 DUP2 DUP10 DUP12 GAS CALL DUP1 ISZERO PUSH2 0x2F2 JUMPI PUSH2 0x47D JUMPI JUMPDEST POP POP PUSH1 0x7 SLOAD AND SWAP2 PUSH1 0xB SLOAD PUSH1 0xA SLOAD SWAP1 DUP5 EXTCODESIZE ISZERO PUSH2 0x479 JUMPI SWAP1 PUSH1 0x64 DUP7 SWAP3 DUP4 DUP7 MLOAD SWAP8 DUP9 SWAP5 DUP6 SWAP4 PUSH4 0x7A94C565 PUSH1 0xE1 SHL DUP6 MSTORE CALLER DUP10 DUP7 ADD MSTORE PUSH1 0x24 DUP6 ADD MSTORE PUSH1 0x44 DUP5 ADD MSTORE GAS CALL DUP1 ISZERO PUSH2 0x46F JUMPI PUSH2 0x443 JUMPI JUMPDEST PUSH1 0x8 DUP1 SLOAD PUSH1 0x1 PUSH1 0x1 PUSH1 0xA8 SHL SUB NOT AND DUP7 OR PUSH1 0x1 PUSH1 0xA0 SHL OR SWAP1 SSTORE PUSH1 0x1 PUSH1 0x10 SSTORE DUP4 DUP1 RETURN JUMPDEST PUSH8 0xFFFFFFFFFFFFFFFF DUP4 GT PUSH2 0x45C JUMPI POP MSTORE PUSH0 DUP1 DUP1 PUSH2 0x422 JUMP JUMPDEST PUSH4 0x4E487B71 PUSH1 0xE0 SHL DUP5 MSTORE PUSH1 0x41 SWAP1 MSTORE PUSH1 0x24 DUP4 REVERT JUMPDEST DUP3 MLOAD RETURNDATASIZE DUP7 DUP3 RETURNDATACOPY RETURNDATASIZE SWAP1 REVERT JUMPDEST DUP6 DUP1 REVERT JUMPDEST DUP2 PUSH2 0x49C SWAP3 SWAP1 RETURNDATASIZE LT PUSH2 0x4A4 JUMPI JUMPDEST PUSH2 0x494 DUP2 DUP4 PUSH2 0x1B3D JUMP JUMPDEST DUP2 ADD SWAP1 PUSH2 0x20DC JUMP JUMPDEST POP PUSH0 DUP1 PUSH2 0x3DA JUMP JUMPDEST POP RETURNDATASIZE PUSH2 0x48A JUMP JUMPDEST POP POP MLOAD PUSH4 0x7EA0AEA5 PUSH1 0xE1 SHL DUP2 MSTORE REVERT JUMPDEST PUSH2 0x4D1 SWAP2 POP DUP8 RETURNDATASIZE DUP10 GT PUSH2 0x4A4 JUMPI PUSH2 0x494 DUP2 DUP4 PUSH2 0x1B3D JUMP JUMPDEST PUSH0 PUSH2 0x39E JUMP JUMPDEST POP POP MLOAD PUSH4 0xD2F85AEB PUSH1 0xE0 SHL DUP2 MSTORE REVERT JUMPDEST PUSH2 0x506 SWAP2 POP DUP9 RETURNDATASIZE DUP11 GT PUSH2 0x50C JUMPI JUMPDEST PUSH2 0x4FE DUP2 DUP4 PUSH2 0x1B3D JUMP JUMPDEST DUP2 ADD SWAP1 PUSH2 0x1F24 JUMP JUMPDEST PUSH0 PUSH2 0x363 JUMP JUMPDEST POP RETURNDATASIZE PUSH2 0x4F4 JUMP JUMPDEST POP DUP1 REVERT JUMPDEST POP DUP3 CALLVALUE PUSH2 0x56E JUMPI PUSH1 0xA0 CALLDATASIZE PUSH1 0x3 NOT ADD SLT PUSH2 0x56E JUMPI PUSH2 0x532 PUSH2 0x1BA6 JUMP JUMPDEST POP PUSH2 0x53B PUSH2 0x1BBC JUMP JUMPDEST POP PUSH1 0x84 CALLDATALOAD SWAP1 PUSH8 0xFFFFFFFFFFFFFFFF DUP3 GT PUSH2 0x56E JUMPI POP PUSH1 0x20 SWAP3 PUSH2 0x55F SWAP2 CALLDATASIZE SWAP2 ADD PUSH2 0x1C1B JUMP JUMPDEST POP POP MLOAD PUSH4 0xF23A6E61 PUSH1 0xE0 SHL DUP2 MSTORE RETURN JUMPDEST DUP1 REVERT JUMPDEST DUP4 DUP3 CALLVALUE PUSH2 0x513 JUMPI DUP1 PUSH1 0x3 NOT CALLDATASIZE ADD SLT PUSH2 0x513 JUMPI DUP1 PUSH1 0x20 SWAP3 PUSH2 0x58F PUSH2 0x1BA6 JUMP JUMPDEST PUSH2 0x597 PUSH2 0x1BBC JUMP JUMPDEST PUSH1 0x1 PUSH1 0x1 PUSH1 0xA0 SHL SUB SWAP2 DUP3 AND DUP4 MSTORE PUSH1 0x2 DUP7 MSTORE DUP4 DUP4 KECCAK256 SWAP2 AND DUP3 MSTORE DUP5 MSTORE KECCAK256 SLOAD SWAP1 MLOAD SWAP1 DUP2 MSTORE RETURN JUMPDEST POP SWAP2 SWAP1 CALLVALUE PUSH2 0x513 JUMPI PUSH1 0xE0 CALLDATASIZE PUSH1 0x3 NOT ADD SLT PUSH2 0x513 JUMPI PUSH2 0x5D6 PUSH2 0x1BA6 JUMP JUMPDEST PUSH2 0x5DE PUSH2 0x1BBC JUMP JUMPDEST SWAP1 PUSH1 0x44 CALLDATALOAD SWAP3 PUSH1 0x64 CALLDATALOAD PUSH1 0x84 CALLDATALOAD PUSH1 0xFF DUP2 AND DUP1 SWAP2 SUB PUSH2 0x7E8 JUMPI TIMESTAMP DUP3 LT PUSH2 0x7B0 JUMPI PUSH1 0x3 SLOAD SWAP2 PUSH1 0x1 DUP1 PUSH1 0xA0 SHL SUB SWAP2 DUP3 DUP7 AND SWAP4 DUP5 DUP11 MSTORE DUP6 PUSH1 0x20 MSTORE DUP11 DUP11 KECCAK256 SWAP3 DUP4 SLOAD SWAP4 PUSH0 NOT DUP6 EQ PUSH2 0x79D JUMPI SWAP1 DUP5 SWAP4 SWAP3 SWAP2 PUSH1 0x1 DUP15 SWAP7 ADD SWAP1 SSTORE DUP5 MLOAD SWAP4 DUP8 PUSH1 0x20 DUP7 ADD SWAP7 PUSH32 0x6E71EDAE12B1B97F4D1F60370FEF10105FA2FAAE0126114A169C64845D6126C9 DUP9 MSTORE DUP7 ADD MSTORE DUP7 DUP12 AND PUSH1 0x60 DUP7 ADD MSTORE DUP12 PUSH1 0x80 DUP7 ADD MSTORE PUSH1 0xA0 DUP6 ADD MSTORE PUSH1 0xC0 DUP5 ADD MSTORE PUSH1 0xC0 DUP4 MSTORE PUSH1 0xE0 DUP4 ADD PUSH8 0xFFFFFFFFFFFFFFFF SWAP5 DUP5 DUP3 LT DUP7 DUP4 GT OR PUSH2 0x78A JUMPI DUP2 DUP15 MSTORE DUP5 MLOAD SWAP1 KECCAK256 PUSH2 0x100 DUP6 ADD SWAP3 PUSH2 0x1901 PUSH1 0xF0 SHL DUP5 MSTORE PUSH2 0x102 DUP7 ADD MSTORE PUSH2 0x122 DUP6 ADD MSTORE PUSH1 0x42 DUP2 MSTORE PUSH2 0x160 DUP5 ADD SWAP5 DUP2 DUP7 LT SWAP1 DUP7 GT OR PUSH2 0x777 JUMPI DUP5 DUP14 MSTORE MLOAD SWAP1 KECCAK256 DUP4 MSTORE PUSH2 0x180 DUP3 ADD MSTORE PUSH1 0xA4 CALLDATALOAD PUSH2 0x1A0 DUP3 ADD MSTORE PUSH1 0xC4 CALLDATALOAD PUSH2 0x1C0 SWAP1 SWAP2 ADD MSTORE DUP8 DUP1 MSTORE PUSH1 0x20 SWAP1 DUP9 SWAP1 PUSH1 0x80 SWAP1 PUSH1 0x1 GAS STATICCALL ISZERO PUSH2 0x76D JUMPI DUP7 MLOAD AND SWAP1 DUP2 ISZERO ISZERO SWAP2 DUP3 PUSH2 0x763 JUMPI JUMPDEST POP POP ISZERO PUSH2 0x720 JUMPI POP PUSH2 0x71D SWAP4 SWAP5 POP PUSH2 0x1C49 JUMP JUMPDEST DUP1 RETURN JUMPDEST PUSH1 0x64 SWAP1 PUSH1 0x20 DUP8 MLOAD SWAP2 PUSH3 0x461BCD PUSH1 0xE5 SHL DUP4 MSTORE DUP3 ADD MSTORE PUSH1 0x1C PUSH1 0x24 DUP3 ADD MSTORE PUSH32 0x556E697377617056323A20494E56414C49445F5349474E415455524500000000 PUSH1 0x44 DUP3 ADD MSTORE REVERT JUMPDEST EQ SWAP1 POP PUSH0 DUP1 PUSH2 0x70A JUMP JUMPDEST DUP8 MLOAD RETURNDATASIZE DUP9 DUP3 RETURNDATACOPY RETURNDATASIZE SWAP1 REVERT JUMPDEST PUSH4 0x4E487B71 PUSH1 0xE0 SHL DUP13 MSTORE PUSH1 0x41 DUP9 MSTORE PUSH1 0x24 DUP13 REVERT JUMPDEST PUSH4 0x4E487B71 PUSH1 0xE0 SHL DUP14 MSTORE PUSH1 0x41 DUP10 MSTORE PUSH1 0x24 DUP14 REVERT JUMPDEST PUSH4 0x4E487B71 PUSH1 0xE0 SHL DUP13 MSTORE PUSH1 0x11 DUP9 MSTORE PUSH1 0x24 DUP13 REVERT JUMPDEST DUP8 MLOAD PUSH3 0x461BCD PUSH1 0xE5 SHL DUP2 MSTORE PUSH1 0x20 DUP2 DUP6 ADD MSTORE PUSH1 0x12 PUSH1 0x24 DUP3 ADD MSTORE PUSH18 0x155B9A5CDDD85C158C8E8811561412549151 PUSH1 0x72 SHL PUSH1 0x44 DUP3 ADD MSTORE PUSH1 0x64 SWAP1 REVERT JUMPDEST DUP7 DUP1 REVERT JUMPDEST DUP4 DUP3 CALLVALUE PUSH2 0x513 JUMPI DUP2 PUSH1 0x3 NOT CALLDATASIZE ADD SLT PUSH2 0x513 JUMPI PUSH1 0x7 SLOAD SWAP1 MLOAD PUSH1 0x1 PUSH1 0x1 PUSH1 0xA0 SHL SUB SWAP1 SWAP2 AND DUP2 MSTORE PUSH1 0x20 SWAP1 RETURN JUMPDEST POP CALLVALUE PUSH2 0x2FC JUMPI PUSH1 0xA0 CALLDATASIZE PUSH1 0x3 NOT ADD SLT PUSH2 0x2FC JUMPI PUSH2 0x82F PUSH2 0x1BA6 JUMP JUMPDEST SWAP2 PUSH2 0x838 PUSH2 0x1BBC JUMP JUMPDEST PUSH1 0x5 SLOAD PUSH1 0x1 PUSH1 0x1 PUSH1 0xA0 SHL SUB SWAP4 SWAP2 SWAP3 SWAP2 SWAP1 DUP5 AND CALLER SUB PUSH2 0x88D JUMPI POP POP DUP2 PUSH12 0xFFFFFFFFFFFFFFFFFFFFFFFF PUSH1 0xA0 SHL SWAP4 AND DUP4 PUSH1 0x6 SLOAD AND OR PUSH1 0x6 SSTORE AND SWAP1 PUSH1 0x7 SLOAD AND OR PUSH1 0x7 SSTORE PUSH1 0x44 CALLDATALOAD PUSH1 0x9 SSTORE PUSH1 0x64 CALLDATALOAD PUSH1 0xA SSTORE PUSH1 0x84 CALLDATALOAD PUSH1 0xB SSTORE DUP1 RETURN JUMPDEST MLOAD PUSH4 0xD2F85AEB PUSH1 0xE0 SHL DUP2 MSTORE REVERT JUMPDEST DUP4 DUP3 CALLVALUE PUSH2 0x513 JUMPI DUP2 PUSH1 0x3 NOT CALLDATASIZE ADD SLT PUSH2 0x513 JUMPI PUSH1 0x5 SLOAD SWAP1 MLOAD PUSH1 0x1 PUSH1 0x1 PUSH1 0xA0 SHL SUB SWAP1 SWAP2 AND DUP2 MSTORE PUSH1 0x20 SWAP1 RETURN JUMPDEST POP SWAP1 CALLVALUE PUSH2 0x2FC JUMPI PUSH1 0x20 SWAP1 DUP2 PUSH1 0x3 NOT CALLDATASIZE ADD SLT PUSH2 0xA32 JUMPI PUSH2 0x8E0 PUSH2 0x1BA6 JUMP JUMPDEST PUSH2 0x8EE PUSH1 0x1 PUSH1 0x10 SLOAD EQ PUSH2 0x1D04 JUMP JUMPDEST PUSH1 0x10 DUP6 SWAP1 SSTORE PUSH1 0x6 SLOAD PUSH1 0x7 SLOAD DUP6 MLOAD PUSH4 0x70A08231 PUSH1 0xE0 SHL DUP2 MSTORE ADDRESS DUP6 DUP3 ADD MSTORE SWAP6 PUSH1 0x1 PUSH1 0x1 PUSH1 0xA0 SHL SUB SWAP2 DUP3 AND SWAP6 SWAP1 SWAP3 SWAP1 SWAP2 AND DUP2 DUP8 PUSH1 0x24 DUP2 DUP5 GAS STATICCALL SWAP7 DUP8 ISZERO PUSH2 0xA28 JUMPI DUP9 SWAP8 PUSH2 0x9F1 JUMPI JUMPDEST POP SWAP1 PUSH2 0x959 PUSH2 0x985 SWAP3 DUP6 PUSH2 0x953 PUSH1 0x1 PUSH1 0x1 PUSH1 0x70 SHL SUB SWAP11 DUP12 PUSH1 0xC SLOAD AND SWAP1 PUSH2 0x2480 JUMP JUMPDEST SWAP2 PUSH2 0x20F4 JUMP JUMPDEST PUSH1 0xB SLOAD DUP4 MLOAD PUSH3 0x7EEAC7 PUSH1 0xE1 SHL DUP2 MSTORE ADDRESS SWAP7 DUP2 ADD SWAP7 DUP8 MSTORE PUSH1 0x20 DUP8 ADD DUP3 SWAP1 MSTORE SWAP1 SWAP6 SWAP1 SWAP3 DUP3 SWAP2 DUP5 SWAP2 DUP3 SWAP2 PUSH1 0x40 ADD SWAP1 JUMP JUMPDEST SUB DUP2 DUP10 GAS STATICCALL SWAP3 DUP4 ISZERO PUSH2 0x9E8 JUMPI POP DUP8 SWAP3 PUSH2 0x9B8 JUMPI JUMPDEST POP POP PUSH2 0x9B0 SWAP1 PUSH2 0x27A SWAP6 PUSH1 0xC SLOAD PUSH1 0x70 SHR AND SWAP1 PUSH2 0x2480 JUMP JUMPDEST SWAP3 ADDRESS SWAP1 PUSH2 0x2205 JUMP JUMPDEST SWAP1 DUP1 SWAP3 POP DUP2 RETURNDATASIZE DUP4 GT PUSH2 0x9E1 JUMPI JUMPDEST PUSH2 0x9CF DUP2 DUP4 PUSH2 0x1B3D JUMP JUMPDEST DUP2 ADD SUB SLT PUSH2 0x479 JUMPI MLOAD DUP5 PUSH2 0x9B0 PUSH2 0x999 JUMP JUMPDEST POP RETURNDATASIZE PUSH2 0x9C5 JUMP JUMPDEST MLOAD RETURNDATASIZE DUP10 DUP3 RETURNDATACOPY RETURNDATASIZE SWAP1 REVERT JUMPDEST SWAP2 DUP1 SWAP2 SWAP8 POP DUP3 DUP2 RETURNDATASIZE DUP4 GT PUSH2 0xA21 JUMPI JUMPDEST PUSH2 0xA0A DUP2 DUP4 PUSH2 0x1B3D JUMP JUMPDEST DUP2 ADD SUB SLT PUSH2 0xA1D JUMPI SWAP1 MLOAD SWAP6 PUSH2 0x959 PUSH2 0x932 JUMP JUMPDEST DUP8 DUP1 REVERT JUMPDEST POP RETURNDATASIZE PUSH2 0xA00 JUMP JUMPDEST DUP4 MLOAD RETURNDATASIZE DUP11 DUP3 RETURNDATACOPY RETURNDATASIZE SWAP1 REVERT JUMPDEST DUP4 DUP1 REVERT JUMPDEST POP DUP3 CALLVALUE PUSH2 0x56E JUMPI PUSH1 0xA0 CALLDATASIZE PUSH1 0x3 NOT ADD SLT PUSH2 0x56E JUMPI PUSH2 0xA51 PUSH2 0x1BA6 JUMP JUMPDEST POP PUSH2 0xA5A PUSH2 0x1BBC JUMP JUMPDEST POP PUSH8 0xFFFFFFFFFFFFFFFF SWAP1 PUSH1 0x44 CALLDATALOAD DUP3 DUP2 GT PUSH2 0x513 JUMPI PUSH2 0xA7C SWAP1 CALLDATASIZE SWAP1 DUP7 ADD PUSH2 0x1BEA JUMP JUMPDEST POP POP PUSH1 0x64 CALLDATALOAD DUP3 DUP2 GT PUSH2 0x513 JUMPI PUSH2 0xA95 SWAP1 CALLDATASIZE SWAP1 DUP7 ADD PUSH2 0x1BEA JUMP JUMPDEST POP POP PUSH1 0x84 CALLDATALOAD SWAP2 DUP3 GT PUSH2 0x56E JUMPI POP PUSH1 0x20 SWAP3 PUSH2 0xAB1 SWAP2 CALLDATASIZE SWAP2 ADD PUSH2 0x1C1B JUMP JUMPDEST POP POP MLOAD PUSH4 0xBC197C81 PUSH1 0xE0 SHL DUP2 MSTORE RETURN JUMPDEST DUP4 DUP3 CALLVALUE PUSH2 0x513 JUMPI DUP2 PUSH1 0x3 NOT CALLDATASIZE ADD SLT PUSH2 0x513 JUMPI PUSH1 0x20 SWAP1 MLOAD PUSH2 0x3E8 DUP2 MSTORE RETURN JUMPDEST DUP4 DUP3 CALLVALUE PUSH2 0x513 JUMPI DUP2 PUSH1 0x3 NOT CALLDATASIZE ADD SLT PUSH2 0x513 JUMPI PUSH1 0x20 SWAP1 PUSH1 0xB SLOAD SWAP1 MLOAD SWAP1 DUP2 MSTORE RETURN JUMPDEST DUP4 DUP3 CALLVALUE PUSH2 0x513 JUMPI DUP1 PUSH1 0x3 NOT CALLDATASIZE ADD SLT PUSH2 0x513 JUMPI PUSH1 0x20 SWAP1 PUSH2 0xB26 PUSH2 0xB1C PUSH2 0x1BA6 JUMP JUMPDEST PUSH1 0x24 CALLDATALOAD SWAP1 CALLER PUSH2 0x1C9C JUMP JUMPDEST MLOAD PUSH1 0x1 DUP2 MSTORE RETURN JUMPDEST DUP4 DUP3 CALLVALUE PUSH2 0x513 JUMPI DUP2 PUSH1 0x3 NOT CALLDATASIZE ADD SLT PUSH2 0x513 JUMPI DUP1 MLOAD PUSH2 0xB6A SWAP2 PUSH2 0xB4E DUP3 PUSH2 0x1B0D JUMP JUMPDEST PUSH1 0x5 DUP3 MSTORE PUSH5 0xA888E4CAF PUSH1 0xDB SHL PUSH1 0x20 DUP4 ADD MSTORE MLOAD SWAP2 DUP3 SWAP2 DUP3 PUSH2 0x1B5F JUMP JUMPDEST SUB SWAP1 RETURN JUMPDEST POP SWAP2 SWAP1 CALLVALUE PUSH2 0x513 JUMPI PUSH1 0x20 DUP1 PUSH1 0x3 NOT CALLDATASIZE ADD SLT PUSH2 0x2FC JUMPI PUSH2 0xB8B PUSH2 0x1BA6 JUMP JUMPDEST PUSH2 0xB99 PUSH1 0x1 PUSH1 0x10 SLOAD EQ PUSH2 0x1D04 JUMP JUMPDEST DUP4 PUSH1 0x10 SSTORE PUSH2 0xBBC PUSH1 0xC SLOAD PUSH1 0x1 PUSH1 0x1 PUSH1 0x70 SHL SUB SWAP2 DUP3 DUP3 AND SWAP3 DUP3 PUSH1 0x70 SHR AND SWAP2 PUSH1 0xE0 SHR SWAP1 JUMP JUMPDEST POP PUSH1 0x6 SLOAD PUSH1 0x7 SLOAD DUP9 MLOAD PUSH4 0x70A08231 PUSH1 0xE0 SHL DUP1 DUP3 MSTORE ADDRESS DUP10 DUP4 ADD MSTORE SWAP1 SWAP9 PUSH1 0x1 PUSH1 0x1 PUSH1 0xA0 SHL SUB SWAP6 SWAP2 SWAP5 SWAP1 SWAP4 SWAP1 SWAP3 DUP7 AND SWAP1 DUP7 AND DUP9 DUP12 PUSH1 0x24 DUP2 DUP5 GAS STATICCALL SWAP11 DUP12 ISZERO PUSH2 0xE00 JUMPI DUP6 SWAP12 PUSH2 0xED3 JUMPI JUMPDEST POP PUSH1 0xB SLOAD DUP13 MLOAD PUSH3 0x7EEAC7 PUSH1 0xE1 SHL DUP1 DUP3 MSTORE ADDRESS DUP14 DUP4 ADD SWAP1 DUP2 MSTORE PUSH1 0x20 DUP2 ADD SWAP4 SWAP1 SWAP4 MSTORE SWAP1 SWAP12 SWAP1 SWAP4 SWAP2 DUP12 SWAP1 DUP14 SWAP1 DUP2 SWAP1 PUSH1 0x40 ADD SUB DUP2 DUP6 GAS STATICCALL SWAP12 DUP13 ISZERO PUSH2 0xE42 JUMPI DUP8 SWAP13 PUSH2 0xEA4 JUMPI JUMPDEST POP ADDRESS DUP8 MSTORE PUSH1 0x1 DUP12 MSTORE DUP14 DUP8 KECCAK256 SLOAD SWAP8 PUSH2 0xC58 DUP8 DUP8 PUSH2 0x1F43 JUMP JUMPDEST SWAP9 DUP9 SLOAD SWAP15 DUP16 SWAP1 PUSH2 0xC68 SWAP1 DUP4 PUSH2 0x2510 JUMP JUMPDEST SWAP1 PUSH2 0xC72 SWAP2 PUSH2 0x1D40 JUMP JUMPDEST SWAP15 DUP16 SWAP15 PUSH2 0xC7F SWAP1 DUP4 PUSH2 0x2510 JUMP JUMPDEST SWAP1 PUSH2 0xC89 SWAP2 PUSH2 0x1D40 JUMP JUMPDEST SWAP14 ISZERO ISZERO DUP1 PUSH2 0xE9B JUMPI JUMPDEST ISZERO PUSH2 0xE4C JUMPI SWAP1 DUP16 DUP16 SWAP1 DUP16 DUP16 SWAP5 SWAP1 DUP16 PUSH2 0xCF5 PUSH1 0x24 SWAP6 DUP16 PUSH2 0xD00 SWAP6 ADDRESS DUP3 MSTORE PUSH1 0x1 DUP12 MSTORE PUSH2 0xCBF DUP2 DUP10 DUP5 KECCAK256 SLOAD PUSH2 0x2480 JUMP JUMPDEST ADDRESS DUP4 MSTORE PUSH1 0x1 DUP13 MSTORE DUP9 DUP4 KECCAK256 SSTORE PUSH2 0xCD5 DUP2 DUP4 SLOAD PUSH2 0x2480 JUMP JUMPDEST DUP3 SSTORE DUP8 MLOAD SWAP1 DUP2 MSTORE PUSH0 DUP1 MLOAD PUSH1 0x20 PUSH2 0x2594 DUP4 CODECOPY DUP2 MLOAD SWAP2 MSTORE DUP12 ADDRESS SWAP3 LOG3 DUP3 DUP13 PUSH2 0x20F4 JUMP JUMPDEST PUSH1 0xB SLOAD SWAP1 ADDRESS DUP11 PUSH2 0x2205 JUMP JUMPDEST MLOAD DUP1 SWAP7 DUP2 SWAP4 DUP3 MSTORE ADDRESS DUP7 DUP4 ADD MSTORE GAS STATICCALL SWAP3 DUP4 ISZERO PUSH2 0xE42 JUMPI SWAP2 DUP15 SWAP2 DUP13 SWAP4 DUP10 SWAP6 PUSH2 0xE0A JUMPI JUMPDEST POP PUSH1 0xB SLOAD SWAP3 MLOAD SWAP6 DUP7 MSTORE ADDRESS SWAP1 DUP7 ADD SWAP1 DUP2 MSTORE PUSH1 0x20 DUP2 ADD SWAP3 SWAP1 SWAP3 MSTORE DUP5 SWAP2 DUP3 SWAP1 DUP2 SWAP1 PUSH1 0x40 ADD JUMPDEST SUB SWAP2 GAS STATICCALL SWAP2 DUP3 ISZERO PUSH2 0xE00 JUMPI DUP6 SWAP3 PUSH2 0xDC9 JUMPI JUMPDEST POP PUSH2 0xD60 SWAP5 POP PUSH2 0x1DE4 JUMP JUMPDEST PUSH2 0xDA6 JUMPI JUMPDEST DUP6 MLOAD SWAP2 DUP6 DUP4 MSTORE DUP5 DUP5 DUP5 ADD MSTORE AND SWAP1 PUSH32 0xDCCD412F0B1252819CB1FD330B93224CA42612892BB3F4F789976E6D81936496 DUP7 CALLER SWAP3 LOG3 PUSH1 0x1 PUSH1 0x10 SSTORE DUP4 MLOAD SWAP3 DUP4 MSTORE DUP3 ADD MSTORE RETURN JUMPDEST PUSH2 0xDC1 PUSH1 0xC SLOAD PUSH1 0x1 PUSH1 0x1 PUSH1 0x70 SHL SUB DUP1 DUP3 PUSH1 0x70 SHR AND SWAP2 AND PUSH2 0x2510 JUMP JUMPDEST PUSH1 0xF SSTORE PUSH2 0xD65 JUMP JUMPDEST SWAP2 POP SWAP2 SWAP3 SWAP4 DUP9 DUP3 DUP2 RETURNDATASIZE DUP4 GT PUSH2 0xDF9 JUMPI JUMPDEST PUSH2 0xDE3 DUP2 DUP4 PUSH2 0x1B3D JUMP JUMPDEST DUP2 ADD SUB SLT PUSH2 0x56E JUMPI POP MLOAD PUSH2 0xD60 SWAP4 SWAP3 SWAP2 PUSH0 PUSH2 0xD55 JUMP JUMPDEST POP RETURNDATASIZE PUSH2 0xDD9 JUMP JUMPDEST DUP13 MLOAD RETURNDATASIZE DUP8 DUP3 RETURNDATACOPY RETURNDATASIZE SWAP1 REVERT JUMPDEST SWAP3 POP SWAP3 SWAP1 SWAP4 POP DUP2 DUP2 RETURNDATASIZE DUP4 GT PUSH2 0xE3B JUMPI JUMPDEST PUSH2 0xE24 DUP2 DUP4 PUSH2 0x1B3D JUMP JUMPDEST DUP2 ADD SUB SLT PUSH2 0x7E8 JUMPI MLOAD SWAP2 DUP11 SWAP2 DUP15 SWAP2 SWAP1 PUSH2 0xD43 PUSH2 0xD21 JUMP JUMPDEST POP RETURNDATASIZE PUSH2 0xE1A JUMP JUMPDEST DUP15 MLOAD RETURNDATASIZE DUP10 DUP3 RETURNDATACOPY RETURNDATASIZE SWAP1 REVERT JUMPDEST DUP16 MLOAD PUSH3 0x461BCD PUSH1 0xE5 SHL DUP2 MSTORE DUP1 DUP5 ADD DUP15 SWAP1 MSTORE PUSH1 0x24 DUP1 DUP3 ADD MSTORE PUSH32 0x54447265783A20494E53554646494349454E545F4C49515549444954595F4255 PUSH1 0x44 DUP3 ADD MSTORE PUSH4 0x14939151 PUSH1 0xE2 SHL PUSH1 0x64 DUP3 ADD MSTORE PUSH1 0x84 SWAP1 REVERT JUMPDEST POP DUP14 ISZERO ISZERO PUSH2 0xC92 JUMP JUMPDEST SWAP1 SWAP12 POP DUP11 DUP2 DUP2 RETURNDATASIZE DUP4 GT PUSH2 0xECC JUMPI JUMPDEST PUSH2 0xEBC DUP2 DUP4 PUSH2 0x1B3D JUMP JUMPDEST DUP2 ADD SUB SLT PUSH2 0x7E8 JUMPI MLOAD SWAP11 PUSH0 PUSH2 0xC41 JUMP JUMPDEST POP RETURNDATASIZE PUSH2 0xEB2 JUMP JUMPDEST SWAP1 SWAP11 POP DUP9 DUP2 DUP2 RETURNDATASIZE DUP4 GT PUSH2 0xEFF JUMPI JUMPDEST PUSH2 0xEEB DUP2 DUP4 PUSH2 0x1B3D JUMP JUMPDEST DUP2 ADD SUB SLT PUSH2 0xEFB JUMPI MLOAD SWAP10 PUSH0 PUSH2 0xC01 JUMP JUMPDEST DUP5 DUP1 REVERT JUMPDEST POP RETURNDATASIZE PUSH2 0xEE1 JUMP JUMPDEST DUP4 DUP3 CALLVALUE PUSH2 0x513 JUMPI DUP2 PUSH1 0x3 NOT CALLDATASIZE ADD SLT PUSH2 0x513 JUMPI PUSH1 0x20 SWAP1 PUSH1 0xA SLOAD SWAP1 MLOAD SWAP1 DUP2 MSTORE RETURN JUMPDEST POP SWAP1 CALLVALUE PUSH2 0x2FC JUMPI PUSH1 0x20 CALLDATASIZE PUSH1 0x3 NOT ADD SLT PUSH2 0x2FC JUMPI PUSH1 0x20 SWAP3 DUP3 SWAP2 PUSH1 0x1 PUSH1 0x1 PUSH1 0xA0 SHL SUB PUSH2 0xF4D PUSH2 0x1BA6 JUMP JUMPDEST AND DUP3 MSTORE DUP5 MSTORE KECCAK256 SLOAD SWAP1 MLOAD SWAP1 DUP2 MSTORE RETURN JUMPDEST DUP4 DUP3 CALLVALUE PUSH2 0x513 JUMPI DUP2 PUSH1 0x3 NOT CALLDATASIZE ADD SLT PUSH2 0x513 JUMPI PUSH1 0x20 SWAP1 PUSH1 0xF SLOAD SWAP1 MLOAD SWAP1 DUP2 MSTORE RETURN JUMPDEST DUP4 DUP3 CALLVALUE PUSH2 0x513 JUMPI PUSH1 0x20 CALLDATASIZE PUSH1 0x3 NOT ADD SLT PUSH2 0x513 JUMPI PUSH1 0x20 SWAP2 DUP2 SWAP1 PUSH1 0x1 PUSH1 0x1 PUSH1 0xA0 SHL SUB PUSH2 0xFA2 PUSH2 0x1BA6 JUMP JUMPDEST AND DUP2 MSTORE PUSH1 0x1 DUP5 MSTORE KECCAK256 SLOAD SWAP1 MLOAD SWAP1 DUP2 MSTORE RETURN JUMPDEST POP CALLVALUE PUSH2 0x2FC JUMPI PUSH1 0x60 CALLDATASIZE PUSH1 0x3 NOT ADD SLT PUSH2 0x2FC JUMPI DUP2 CALLDATALOAD PUSH1 0x24 CALLDATALOAD SWAP1 PUSH1 0x44 CALLDATALOAD SWAP4 PUSH1 0x1 DUP1 PUSH1 0xA0 SHL SUB SWAP4 DUP5 DUP7 AND SWAP6 DUP7 DUP2 SUB PUSH2 0xA1D JUMPI PUSH2 0xFEF PUSH1 0x1 PUSH1 0x10 SLOAD EQ PUSH2 0x1D04 JUMP JUMPDEST DUP8 PUSH1 0x10 SSTORE DUP4 ISZERO SWAP6 DUP7 DUP1 SWAP8 PUSH2 0x135F JUMPI JUMPDEST PUSH2 0x1350 JUMPI PUSH2 0x1021 PUSH1 0xC SLOAD PUSH1 0x1 PUSH1 0x1 PUSH1 0x70 SHL SUB SWAP2 DUP3 DUP3 AND SWAP3 DUP3 PUSH1 0x70 SHR AND SWAP2 PUSH1 0xE0 SHR SWAP1 JUMP JUMPDEST POP SWAP2 PUSH1 0x1 PUSH1 0x1 PUSH1 0x70 SHL SUB SWAP9 DUP10 DUP4 AND SWAP5 DUP6 DUP10 LT ISZERO DUP1 PUSH2 0x1344 JUMPI JUMPDEST PUSH2 0x1328 JUMPI DUP3 PUSH1 0x6 SLOAD AND SWAP3 PUSH1 0x7 SLOAD AND SWAP2 DUP4 DUP14 EQ DUP1 ISZERO PUSH2 0x131F JUMPI JUMPDEST PUSH2 0x130C JUMPI ISZERO PUSH2 0x12FC JUMPI JUMPDEST DUP10 DUP1 PUSH2 0x12E7 JUMPI JUMPDEST POP POP DUP6 MLOAD SWAP7 DUP8 SWAP3 PUSH4 0x70A08231 PUSH1 0xE0 SHL DUP5 MSTORE ADDRESS DUP3 DUP6 ADD MSTORE DUP4 PUSH1 0x24 PUSH1 0x20 SWAP11 DUP12 SWAP4 GAS STATICCALL SWAP2 DUP14 DUP4 ISZERO PUSH2 0x12DC JUMPI SWAP1 DUP10 SWAP2 SWAP4 PUSH2 0x12AB JUMPI JUMPDEST PUSH1 0xB SLOAD DUP10 MLOAD PUSH3 0x7EEAC7 PUSH1 0xE1 SHL DUP2 MSTORE ADDRESS DUP6 DUP3 ADD SWAP1 DUP2 MSTORE PUSH1 0x20 DUP2 ADD SWAP3 SWAP1 SWAP3 MSTORE SWAP6 POP DUP6 SWAP2 SWAP1 DUP3 SWAP1 DUP2 SWAP1 PUSH1 0x40 ADD JUMPDEST SUB SWAP2 GAS STATICCALL SWAP3 DUP4 ISZERO PUSH2 0x12A1 JUMPI DUP14 SWAP4 PUSH2 0x126E JUMPI JUMPDEST POP PUSH2 0x10DC DUP10 DUP8 PUSH2 0x2393 JUMP JUMPDEST DUP3 GT ISZERO PUSH2 0x1267 JUMPI PUSH2 0x10F6 PUSH2 0x10F0 DUP11 DUP9 PUSH2 0x2393 JUMP JUMPDEST DUP4 PUSH2 0x2393 JUMP JUMPDEST SWAP11 JUMPDEST DUP6 AND SWAP6 DUP14 PUSH2 0x1106 DUP13 DUP10 PUSH2 0x2393 JUMP JUMPDEST DUP6 GT ISZERO SWAP1 POP PUSH2 0x1260 JUMPI PUSH2 0x1122 PUSH2 0x111C DUP13 DUP10 PUSH2 0x2393 JUMP JUMPDEST DUP6 PUSH2 0x2393 JUMP JUMPDEST SWAP7 JUMPDEST DUP13 ISZERO DUP1 PUSH2 0x1258 JUMPI JUMPDEST PUSH2 0x1248 JUMPI PUSH2 0x1174 SWAP1 PUSH2 0x116E PUSH2 0x1153 DUP16 PUSH2 0x114D PUSH2 0x1147 DUP10 PUSH2 0x24D2 JUMP JUMPDEST SWAP2 PUSH2 0x24F1 JUMP JUMPDEST SWAP1 PUSH2 0x2480 JUMP JUMPDEST PUSH2 0x1168 PUSH2 0x115F DUP10 PUSH2 0x24D2 JUMP JUMPDEST PUSH2 0x114D DUP14 PUSH2 0x24F1 JUMP JUMPDEST SWAP1 PUSH2 0x2510 JUMP JUMPDEST SWAP3 PUSH2 0x2510 JUMP JUMPDEST SWAP1 PUSH3 0xF4240 SWAP2 DUP3 DUP2 MUL SWAP3 DUP2 DUP5 DIV DUP2 EQ DUP3 ISZERO OR ISZERO PUSH2 0x1233 JUMPI DUP4 DIV SUB PUSH2 0x11F9 JUMPI LT PUSH2 0x11EB JUMPI POP SWAP1 PUSH2 0x11A4 SWAP4 SWAP3 SWAP2 PUSH2 0x1DE4 JUMP JUMPDEST PUSH1 0xB SLOAD SWAP3 DUP3 MLOAD SWAP7 DUP8 MSTORE DUP7 ADD MSTORE DUP5 ADD MSTORE PUSH1 0x60 DUP4 ADD MSTORE PUSH1 0x80 DUP3 ADD MSTORE PUSH32 0xD8A2619BB81B7AB8223519302707BC92744BB4C9E8F4DFF2F582D261953C54C9 PUSH1 0xA0 CALLER SWAP3 LOG3 PUSH1 0x1 PUSH1 0x10 SSTORE DUP1 RETURN JUMPDEST DUP7 MLOAD PUSH4 0xDE92078F PUSH1 0xE0 SHL DUP2 MSTORE REVERT JUMPDEST DUP9 MLOAD PUSH3 0x461BCD PUSH1 0xE5 SHL DUP2 MSTORE DUP1 DUP5 ADD DUP12 SWAP1 MSTORE PUSH1 0x14 PUSH1 0x24 DUP3 ADD MSTORE PUSH20 0x64732D6D6174682D6D756C2D6F766572666C6F77 PUSH1 0x60 SHL PUSH1 0x44 DUP3 ADD MSTORE PUSH1 0x64 SWAP1 REVERT JUMPDEST POP POP PUSH4 0x4E487B71 PUSH1 0xE0 SHL DUP16 MSTORE PUSH1 0x11 DUP4 MSTORE PUSH1 0x24 DUP16 REVERT JUMPDEST DUP9 MLOAD PUSH4 0x41F8D065 PUSH1 0xE1 SHL DUP2 MSTORE DUP4 SWAP1 REVERT JUMPDEST POP DUP8 ISZERO PUSH2 0x112C JUMP JUMPDEST DUP14 SWAP7 PUSH2 0x1124 JUMP JUMPDEST DUP13 SWAP11 PUSH2 0x10F8 JUMP JUMPDEST SWAP1 SWAP3 POP DUP8 DUP2 DUP2 RETURNDATASIZE DUP4 GT PUSH2 0x129A JUMPI JUMPDEST PUSH2 0x1286 DUP2 DUP4 PUSH2 0x1B3D JUMP JUMPDEST DUP2 ADD SUB SLT PUSH2 0x1296 JUMPI MLOAD SWAP2 PUSH0 PUSH2 0x10D1 JUMP JUMPDEST DUP13 DUP1 REVERT JUMPDEST POP RETURNDATASIZE PUSH2 0x127C JUMP JUMPDEST DUP8 MLOAD RETURNDATASIZE DUP16 DUP3 RETURNDATACOPY RETURNDATASIZE SWAP1 REVERT JUMPDEST SWAP3 POP DUP4 DUP2 RETURNDATASIZE DUP4 GT PUSH2 0x12D5 JUMPI JUMPDEST PUSH2 0x12C1 DUP2 DUP4 PUSH2 0x1B3D JUMP JUMPDEST DUP2 ADD SUB SLT PUSH2 0x1296 JUMPI DUP8 PUSH2 0x10BF SWAP4 MLOAD SWAP3 PUSH2 0x1095 JUMP JUMPDEST POP RETURNDATASIZE PUSH2 0x12B7 JUMP JUMPDEST DUP9 MLOAD SWAP1 RETURNDATASIZE SWAP1 DUP3 RETURNDATACOPY RETURNDATASIZE SWAP1 REVERT JUMPDEST PUSH1 0xB SLOAD PUSH2 0x12F5 SWAP3 ADDRESS DUP6 PUSH2 0x2205 JUMP JUMPDEST PUSH0 DUP10 PUSH2 0x1064 JUMP JUMPDEST PUSH2 0x1307 DUP10 DUP3 DUP6 PUSH2 0x20F4 JUMP JUMPDEST PUSH2 0x105D JUMP JUMPDEST DUP8 MLOAD PUSH1 0x1 PUSH3 0x351165 PUSH1 0xE1 SHL SUB NOT DUP2 MSTORE DUP10 SWAP1 REVERT JUMPDEST POP DUP3 DUP14 EQ PUSH2 0x1053 JUMP JUMPDEST PUSH1 0x44 DUP9 DUP12 DUP12 DUP11 MLOAD SWAP3 PUSH4 0x9499BF71 PUSH1 0xE0 SHL DUP5 MSTORE DUP4 ADD MSTORE PUSH1 0x24 DUP3 ADD MSTORE REVERT JUMPDEST POP DUP11 DUP6 AND DUP11 LT ISZERO PUSH2 0x103A JUMP JUMPDEST POP POP MLOAD PUSH4 0xF201E09 PUSH1 0xE0 SHL DUP2 MSTORE REVERT JUMPDEST POP DUP6 ISZERO PUSH2 0xFFE JUMP JUMPDEST POP CALLVALUE PUSH2 0x2FC JUMPI PUSH1 0x20 SWAP2 DUP3 PUSH1 0x3 NOT CALLDATASIZE ADD SLT PUSH2 0xA32 JUMPI PUSH1 0x24 SWAP3 SWAP4 PUSH2 0x1387 PUSH2 0x1BA6 JUMP JUMPDEST SWAP2 PUSH2 0x1396 PUSH1 0x1 PUSH1 0x10 SLOAD EQ PUSH2 0x1D04 JUMP JUMPDEST DUP2 PUSH1 0x10 SSTORE PUSH2 0x13B9 PUSH1 0xC SLOAD PUSH1 0x1 PUSH1 0x1 PUSH1 0x70 SHL SUB SWAP2 DUP3 DUP3 AND SWAP3 DUP3 PUSH1 0x70 SHR AND SWAP2 PUSH1 0xE0 SHR SWAP1 JUMP JUMPDEST POP PUSH1 0x6 SLOAD DUP7 MLOAD PUSH4 0x70A08231 PUSH1 0xE0 SHL DUP2 MSTORE ADDRESS DUP6 DUP3 ADD MSTORE SWAP8 SWAP2 SWAP3 SWAP2 PUSH1 0x1 PUSH1 0x1 PUSH1 0xA0 SHL SUB SWAP2 DUP11 SWAP2 DUP11 SWAP2 DUP3 SWAP1 DUP6 AND GAS STATICCALL SWAP8 DUP9 ISZERO PUSH2 0x15E9 JUMPI SWAP1 DUP10 SWAP2 DUP7 SWAP10 PUSH2 0x15F3 JUMPI JUMPDEST POP PUSH1 0x7 SLOAD PUSH1 0xB SLOAD DUP10 MLOAD PUSH3 0x7EEAC7 PUSH1 0xE1 SHL DUP2 MSTORE ADDRESS DUP2 DUP10 ADD SWAP1 DUP2 MSTORE PUSH1 0x20 DUP2 ADD SWAP3 SWAP1 SWAP3 MSTORE SWAP7 SWAP6 SWAP5 SWAP4 SWAP3 DUP8 SWAP3 AND SWAP1 DUP3 SWAP1 DUP2 SWAP1 PUSH1 0x40 ADD JUMPDEST SUB SWAP2 GAS STATICCALL SWAP4 DUP5 ISZERO PUSH2 0x15E9 JUMPI DUP6 SWAP5 PUSH2 0x15BA JUMPI JUMPDEST POP PUSH1 0x1 PUSH1 0x1 PUSH1 0x70 SHL SUB SWAP4 DUP5 DUP3 AND SWAP9 PUSH2 0x1452 DUP11 DUP3 PUSH2 0x2480 JUMP JUMPDEST SWAP8 DUP7 DUP6 AND SWAP6 PUSH2 0x1461 DUP8 DUP6 PUSH2 0x2480 JUMP JUMPDEST SWAP9 PUSH2 0x146C DUP8 DUP8 PUSH2 0x1F43 JUMP JUMPDEST SWAP8 DUP2 SLOAD SWAP14 DUP15 ISZERO PUSH0 EQ PUSH2 0x157C JUMPI POP POP PUSH2 0x148C PUSH2 0x1487 DUP12 DUP14 PUSH2 0x2510 JUMP JUMPDEST PUSH2 0x23C0 JUMP JUMPDEST PUSH2 0x3E7 NOT DUP2 ADD SWAP1 DUP2 GT PUSH2 0x1569 JUMPI DUP15 DUP3 SWAP2 SWAP15 PUSH2 0x14A6 SWAP1 PUSH2 0x2419 JUMP JUMPDEST DUP3 SSTORE DUP2 DUP1 MSTORE PUSH1 0x1 DUP2 MSTORE DUP14 DUP1 DUP4 KECCAK256 SLOAD PUSH2 0x14BD SWAP1 PUSH2 0x2419 JUMP JUMPDEST SWAP1 DUP4 DUP1 MSTORE PUSH1 0x1 DUP4 MSTORE DUP4 KECCAK256 SSTORE DUP14 MLOAD SWAP1 PUSH2 0x3E8 DUP3 MSTORE PUSH0 DUP1 MLOAD PUSH1 0x20 PUSH2 0x2594 DUP4 CODECOPY DUP2 MLOAD SWAP2 MSTORE SWAP2 LOG3 JUMPDEST DUP12 ISZERO PUSH2 0x155B JUMPI POP SWAP1 PUSH2 0x14F9 DUP12 PUSH2 0x14FE SWAP7 SWAP6 SWAP5 SWAP4 PUSH2 0x1D5E JUMP JUMPDEST PUSH2 0x1DE4 JUMP JUMPDEST PUSH2 0x153D JUMPI JUMPDEST POP DUP3 MLOAD SWAP2 DUP3 MSTORE DUP5 DUP3 ADD MSTORE PUSH32 0x4C209B5FC8AD50758F13E2E1088BA56A560DFF690A1C6FEF26394F4C03821C4F DUP3 CALLER SWAP3 LOG2 PUSH1 0x1 PUSH1 0x10 SSTORE MLOAD SWAP1 DUP2 MSTORE RETURN JUMPDEST PUSH2 0x1552 SWAP1 PUSH1 0xC SLOAD SWAP1 DUP1 DUP3 PUSH1 0x70 SHR AND SWAP2 AND PUSH2 0x2510 JUMP JUMPDEST PUSH1 0xF SSTORE PUSH0 PUSH2 0x1503 JUMP JUMPDEST DUP11 MLOAD PUSH4 0x13CD8095 PUSH1 0xE3 SHL DUP2 MSTORE REVERT JUMPDEST POP PUSH1 0x11 PUSH1 0x24 SWAP3 PUSH4 0x4E487B71 PUSH1 0xE0 SHL DUP4 MSTORE MSTORE REVERT JUMPDEST SWAP1 PUSH2 0x1595 DUP16 SWAP5 SWAP16 PUSH2 0x15A1 SWAP4 DUP16 PUSH2 0x159A SWAP3 PUSH2 0x1595 SWAP2 PUSH2 0x2510 JUMP JUMPDEST PUSH2 0x1D40 JUMP JUMPDEST SWAP5 DUP14 PUSH2 0x2510 JUMP JUMPDEST SWAP1 POP DUP1 DUP3 LT ISZERO PUSH2 0x15B3 JUMPI POP JUMPDEST SWAP11 PUSH2 0x14E1 JUMP JUMPDEST SWAP1 POP PUSH2 0x15AD JUMP JUMPDEST SWAP1 SWAP4 POP DUP9 DUP2 DUP2 RETURNDATASIZE DUP4 GT PUSH2 0x15E2 JUMPI JUMPDEST PUSH2 0x15D2 DUP2 DUP4 PUSH2 0x1B3D JUMP JUMPDEST DUP2 ADD SUB SLT PUSH2 0xEFB JUMPI MLOAD SWAP3 PUSH0 PUSH2 0x143A JUMP JUMPDEST POP RETURNDATASIZE PUSH2 0x15C8 JUMP JUMPDEST DUP8 MLOAD RETURNDATASIZE DUP8 DUP3 RETURNDATACOPY RETURNDATASIZE SWAP1 REVERT JUMPDEST DUP3 DUP2 SWAP4 SWAP3 SWAP11 POP RETURNDATASIZE DUP4 GT PUSH2 0x161F JUMPI JUMPDEST PUSH2 0x160B DUP2 DUP4 PUSH2 0x1B3D JUMP JUMPDEST DUP2 ADD SUB SLT PUSH2 0xEFB JUMPI MLOAD SWAP7 DUP9 SWAP1 PUSH2 0x1428 PUSH2 0x13F6 JUMP JUMPDEST POP RETURNDATASIZE PUSH2 0x1601 JUMP JUMPDEST DUP4 DUP3 CALLVALUE PUSH2 0x513 JUMPI DUP2 PUSH1 0x3 NOT CALLDATASIZE ADD SLT PUSH2 0x513 JUMPI PUSH1 0x20 SWAP1 PUSH1 0x1 PUSH1 0x1 PUSH1 0x70 SHL SUB PUSH1 0xC SLOAD PUSH1 0x70 SHR AND SWAP1 MLOAD SWAP1 DUP2 MSTORE RETURN JUMPDEST DUP4 DUP3 CALLVALUE PUSH2 0x513 JUMPI DUP2 PUSH1 0x3 NOT CALLDATASIZE ADD SLT PUSH2 0x513 JUMPI PUSH1 0x20 SWAP1 PUSH1 0xE SLOAD SWAP1 MLOAD SWAP1 DUP2 MSTORE RETURN JUMPDEST DUP4 DUP3 CALLVALUE PUSH2 0x513 JUMPI DUP2 PUSH1 0x3 NOT CALLDATASIZE ADD SLT PUSH2 0x513 JUMPI PUSH1 0x20 SWAP1 PUSH1 0xD SLOAD SWAP1 MLOAD SWAP1 DUP2 MSTORE RETURN JUMPDEST DUP4 DUP3 CALLVALUE PUSH2 0x513 JUMPI DUP2 PUSH1 0x3 NOT CALLDATASIZE ADD SLT PUSH2 0x513 JUMPI PUSH1 0x20 SWAP1 PUSH1 0x1 PUSH1 0x1 PUSH1 0x70 SHL SUB PUSH1 0xC SLOAD AND SWAP1 MLOAD SWAP1 DUP2 MSTORE RETURN JUMPDEST DUP4 DUP3 CALLVALUE PUSH2 0x513 JUMPI DUP2 PUSH1 0x3 NOT CALLDATASIZE ADD SLT PUSH2 0x513 JUMPI PUSH1 0x20 SWAP1 PUSH1 0x3 SLOAD SWAP1 MLOAD SWAP1 DUP2 MSTORE RETURN JUMPDEST DUP4 DUP3 CALLVALUE PUSH2 0x513 JUMPI DUP2 PUSH1 0x3 NOT CALLDATASIZE ADD SLT PUSH2 0x513 JUMPI PUSH1 0x20 SWAP1 MLOAD PUSH1 0x12 DUP2 MSTORE RETURN JUMPDEST DUP4 DUP3 CALLVALUE PUSH2 0x513 JUMPI DUP2 PUSH1 0x3 NOT CALLDATASIZE ADD SLT PUSH2 0x513 JUMPI PUSH1 0x20 SWAP1 MLOAD PUSH32 0x6E71EDAE12B1B97F4D1F60370FEF10105FA2FAAE0126114A169C64845D6126C9 DUP2 MSTORE RETURN JUMPDEST DUP4 DUP3 CALLVALUE PUSH2 0x513 JUMPI PUSH1 0x60 CALLDATASIZE PUSH1 0x3 NOT ADD SLT PUSH2 0x513 JUMPI PUSH2 0xB26 PUSH2 0x174B PUSH2 0x1BA6 JUMP JUMPDEST PUSH2 0x1753 PUSH2 0x1BBC JUMP JUMPDEST PUSH1 0x44 CALLDATALOAD SWAP2 PUSH1 0x1 DUP1 PUSH1 0xA0 SHL SUB DUP2 AND DUP1 DUP8 MSTORE DUP6 PUSH1 0x20 SWAP8 PUSH1 0x2 DUP10 MSTORE DUP2 DUP2 KECCAK256 CALLER DUP3 MSTORE DUP10 MSTORE PUSH0 NOT DUP3 DUP3 KECCAK256 SLOAD SUB PUSH2 0x1787 JUMPI JUMPDEST POP POP POP PUSH2 0x1C9C JUMP JUMPDEST DUP3 DUP2 MSTORE PUSH1 0x2 DUP10 MSTORE DUP2 DUP2 KECCAK256 CALLER DUP3 MSTORE DUP10 MSTORE PUSH2 0x17A3 DUP7 DUP4 DUP4 KECCAK256 SLOAD PUSH2 0x2480 JUMP JUMPDEST SWAP3 DUP2 MSTORE PUSH1 0x2 DUP10 MSTORE DUP2 DUP2 KECCAK256 CALLER DUP3 MSTORE DUP10 MSTORE KECCAK256 SSTORE DUP7 DUP6 DUP2 PUSH2 0x177F JUMP JUMPDEST DUP4 DUP3 CALLVALUE PUSH2 0x513 JUMPI DUP2 PUSH1 0x3 NOT CALLDATASIZE ADD SLT PUSH2 0x513 JUMPI PUSH1 0x20 SWAP2 SLOAD SWAP1 MLOAD SWAP1 DUP2 MSTORE RETURN JUMPDEST DUP4 DUP3 CALLVALUE PUSH2 0x513 JUMPI DUP2 PUSH1 0x3 NOT CALLDATASIZE ADD SLT PUSH2 0x513 JUMPI PUSH1 0x20 SWAP1 PUSH1 0x9 SLOAD SWAP1 MLOAD SWAP1 DUP2 MSTORE RETURN JUMPDEST POP CALLVALUE PUSH2 0x2FC JUMPI DUP1 PUSH1 0x3 NOT CALLDATASIZE ADD SLT PUSH2 0x2FC JUMPI PUSH8 0xFFFFFFFFFFFFFFFF SWAP2 DUP1 CALLDATALOAD DUP4 DUP2 GT PUSH2 0xEFB JUMPI CALLDATASIZE PUSH1 0x23 DUP3 ADD SLT ISZERO PUSH2 0xEFB JUMPI DUP1 DUP3 ADD CALLDATALOAD SWAP4 PUSH1 0x24 PUSH2 0x1837 DUP7 PUSH2 0x1BD2 JUMP JUMPDEST SWAP3 PUSH2 0x1844 DUP7 MLOAD SWAP5 DUP6 PUSH2 0x1B3D JUMP JUMPDEST DUP7 DUP5 MSTORE PUSH1 0x20 SWAP7 DUP3 DUP9 DUP7 ADD SWAP2 PUSH1 0x5 SHL DUP4 ADD ADD SWAP2 CALLDATASIZE DUP4 GT PUSH2 0x19C3 JUMPI DUP4 ADD SWAP1 JUMPDEST DUP3 DUP3 LT PUSH2 0x19C7 JUMPI POP POP POP DUP1 CALLDATALOAD SWAP2 DUP3 GT PUSH2 0x7E8 JUMPI CALLDATASIZE PUSH1 0x23 DUP4 ADD SLT ISZERO PUSH2 0x7E8 JUMPI DUP2 DUP5 ADD CALLDATALOAD SWAP2 PUSH2 0x188D DUP4 PUSH2 0x1BD2 JUMP JUMPDEST SWAP3 PUSH2 0x189A DUP8 MLOAD SWAP5 DUP6 PUSH2 0x1B3D JUMP JUMPDEST DUP1 DUP5 MSTORE DUP3 DUP9 DUP6 ADD SWAP2 PUSH1 0x5 SHL DUP4 ADD ADD SWAP2 CALLDATASIZE DUP4 GT PUSH2 0x19C3 JUMPI DUP4 DUP10 SWAP2 ADD SWAP2 JUMPDEST DUP4 DUP4 LT PUSH2 0x19B3 JUMPI POP POP POP POP PUSH1 0x8 SWAP1 PUSH1 0xFF DUP3 SLOAD PUSH1 0xA0 SHR AND ISZERO PUSH2 0x19A3 JUMPI DUP4 MLOAD SWAP1 DUP4 MLOAD DUP3 DUP2 SUB PUSH2 0x1988 JUMPI POP POP ISZERO JUMPDEST DUP1 ISZERO PUSH2 0x18EB JUMPI DUP8 DUP1 RETURN JUMPDEST DUP2 SLOAD PUSH2 0x194C SWAP1 DUP9 SWAP1 PUSH1 0x1 PUSH1 0x1 PUSH1 0xA0 SHL SUB SWAP1 DUP2 AND SWAP1 PUSH2 0x1908 DUP9 PUSH2 0x2372 JUMP JUMPDEST MLOAD AND SWAP1 PUSH2 0x1914 DUP8 PUSH2 0x2372 JUMP JUMPDEST MLOAD DUP11 MLOAD PUSH4 0xA9059CBB PUSH1 0xE0 SHL DUP2 MSTORE PUSH1 0x1 PUSH1 0x1 PUSH1 0xA0 SHL SUB SWAP1 SWAP4 AND DUP4 DUP12 ADD SWAP1 DUP2 MSTORE PUSH1 0x20 DUP2 ADD SWAP2 SWAP1 SWAP2 MSTORE SWAP2 SWAP4 DUP5 SWAP3 DUP4 SWAP2 DUP15 SWAP2 DUP4 SWAP2 PUSH1 0x40 SWAP1 SWAP2 ADD SWAP1 JUMP JUMPDEST SUB SWAP3 GAS CALL DUP1 ISZERO PUSH2 0x197E JUMPI PUSH2 0x1961 JUMPI JUMPDEST POP PUSH2 0x18E1 JUMP JUMPDEST PUSH2 0x1977 SWAP1 DUP9 RETURNDATASIZE DUP11 GT PUSH2 0x4A4 JUMPI PUSH2 0x494 DUP2 DUP4 PUSH2 0x1B3D JUMP JUMPDEST POP PUSH0 PUSH2 0x195B JUMP JUMPDEST DUP8 MLOAD RETURNDATASIZE DUP12 DUP3 RETURNDATACOPY RETURNDATASIZE SWAP1 REVERT JUMPDEST SWAP2 DUP7 SWAP2 PUSH1 0x44 SWAP4 DUP10 MLOAD SWAP4 PUSH4 0x963F39BF PUSH1 0xE0 SHL DUP6 MSTORE DUP5 ADD MSTORE DUP3 ADD MSTORE REVERT JUMPDEST DUP6 MLOAD PUSH4 0x3AE44449 PUSH1 0xE1 SHL DUP2 MSTORE DUP6 SWAP1 REVERT JUMPDEST DUP3 CALLDATALOAD DUP2 MSTORE SWAP2 DUP2 ADD SWAP2 DUP10 SWAP2 ADD PUSH2 0x18B6 JUMP JUMPDEST DUP10 DUP1 REVERT JUMPDEST DUP2 CALLDATALOAD PUSH1 0x1 PUSH1 0x1 PUSH1 0xA0 SHL SUB DUP2 AND DUP2 SUB PUSH2 0x19E6 JUMPI DUP2 MSTORE SWAP1 DUP9 ADD SWAP1 DUP9 ADD PUSH2 0x1861 JUMP JUMPDEST DUP11 DUP1 REVERT JUMPDEST DUP4 DUP3 CALLVALUE PUSH2 0x513 JUMPI DUP2 PUSH1 0x3 NOT CALLDATASIZE ADD SLT PUSH2 0x513 JUMPI PUSH1 0x6 SLOAD SWAP1 MLOAD PUSH1 0x1 PUSH1 0x1 PUSH1 0xA0 SHL SUB SWAP1 SWAP2 AND DUP2 MSTORE PUSH1 0x20 SWAP1 RETURN JUMPDEST DUP4 DUP3 CALLVALUE PUSH2 0x513 JUMPI DUP1 PUSH1 0x3 NOT CALLDATASIZE ADD SLT PUSH2 0x513 JUMPI PUSH1 0x20 SWAP1 PUSH2 0xB26 PUSH2 0x1A33 PUSH2 0x1BA6 JUMP JUMPDEST PUSH1 0x24 CALLDATALOAD SWAP1 CALLER PUSH2 0x1C49 JUMP JUMPDEST POP DUP3 CALLVALUE PUSH2 0x56E JUMPI DUP1 PUSH1 0x3 NOT CALLDATASIZE ADD SLT PUSH2 0x56E JUMPI PUSH1 0x60 PUSH4 0xFFFFFFFF DUP4 PUSH2 0x1A76 PUSH1 0xC SLOAD PUSH1 0x1 PUSH1 0x1 PUSH1 0x70 SHL SUB SWAP2 DUP3 DUP3 AND SWAP3 DUP3 PUSH1 0x70 SHR AND SWAP2 PUSH1 0xE0 SHR SWAP1 JUMP JUMPDEST SWAP1 SWAP4 SWAP2 DUP4 MLOAD SWAP5 PUSH1 0x1 PUSH1 0x1 PUSH1 0x70 SHL SUB DUP1 SWAP3 AND DUP7 MSTORE AND PUSH1 0x20 DUP6 ADD MSTORE AND SWAP1 DUP3 ADD MSTORE RETURN JUMPDEST DUP4 DUP3 CALLVALUE PUSH2 0x513 JUMPI DUP2 PUSH1 0x3 NOT CALLDATASIZE ADD SLT PUSH2 0x513 JUMPI DUP1 MLOAD PUSH2 0xB6A SWAP2 PUSH2 0x1AB7 DUP3 PUSH2 0x1B0D JUMP JUMPDEST PUSH1 0x6 DUP3 MSTORE PUSH6 0xA85A88E4CAF PUSH1 0xD3 SHL PUSH1 0x20 DUP4 ADD MSTORE MLOAD SWAP2 DUP3 SWAP2 DUP3 PUSH2 0x1B5F JUMP JUMPDEST DUP5 SWAP1 DUP5 CALLVALUE PUSH2 0x2FC JUMPI PUSH1 0x20 CALLDATASIZE PUSH1 0x3 NOT ADD SLT PUSH2 0x2FC JUMPI CALLDATALOAD SWAP2 PUSH1 0x1 PUSH1 0x1 PUSH1 0xE0 SHL SUB NOT DUP4 AND DUP4 SUB PUSH2 0x56E JUMPI POP PUSH2 0x1B07 PUSH1 0x20 SWAP3 PUSH2 0x23A0 JUMP JUMPDEST ISZERO ISZERO DUP2 MSTORE RETURN JUMPDEST PUSH1 0x40 DUP2 ADD SWAP1 DUP2 LT PUSH8 0xFFFFFFFFFFFFFFFF DUP3 GT OR PUSH2 0x1B29 JUMPI PUSH1 0x40 MSTORE JUMP JUMPDEST PUSH4 0x4E487B71 PUSH1 0xE0 SHL PUSH0 MSTORE PUSH1 0x41 PUSH1 0x4 MSTORE PUSH1 0x24 PUSH0 REVERT JUMPDEST SWAP1 PUSH1 0x1F DUP1 NOT SWAP2 ADD AND DUP2 ADD SWAP1 DUP2 LT PUSH8 0xFFFFFFFFFFFFFFFF DUP3 GT OR PUSH2 0x1B29 JUMPI PUSH1 0x40 MSTORE JUMP JUMPDEST PUSH1 0x20 DUP1 DUP3 MSTORE DUP3 MLOAD DUP2 DUP4 ADD DUP2 SWAP1 MSTORE SWAP1 SWAP4 SWAP3 PUSH0 JUMPDEST DUP3 DUP2 LT PUSH2 0x1B92 JUMPI POP POP PUSH1 0x40 SWAP3 SWAP4 POP PUSH0 DUP4 DUP3 DUP5 ADD ADD MSTORE PUSH1 0x1F DUP1 NOT SWAP2 ADD AND ADD ADD SWAP1 JUMP JUMPDEST DUP2 DUP2 ADD DUP7 ADD MLOAD DUP5 DUP3 ADD PUSH1 0x40 ADD MSTORE DUP6 ADD PUSH2 0x1B71 JUMP JUMPDEST PUSH1 0x4 CALLDATALOAD SWAP1 PUSH1 0x1 PUSH1 0x1 PUSH1 0xA0 SHL SUB DUP3 AND DUP3 SUB PUSH2 0x2AD JUMPI JUMP JUMPDEST PUSH1 0x24 CALLDATALOAD SWAP1 PUSH1 0x1 PUSH1 0x1 PUSH1 0xA0 SHL SUB DUP3 AND DUP3 SUB PUSH2 0x2AD JUMPI JUMP JUMPDEST PUSH8 0xFFFFFFFFFFFFFFFF DUP2 GT PUSH2 0x1B29 JUMPI PUSH1 0x5 SHL PUSH1 0x20 ADD SWAP1 JUMP JUMPDEST SWAP2 DUP2 PUSH1 0x1F DUP5 ADD SLT ISZERO PUSH2 0x2AD JUMPI DUP3 CALLDATALOAD SWAP2 PUSH8 0xFFFFFFFFFFFFFFFF DUP4 GT PUSH2 0x2AD JUMPI PUSH1 0x20 DUP1 DUP6 ADD SWAP5 DUP5 PUSH1 0x5 SHL ADD ADD GT PUSH2 0x2AD JUMPI JUMP JUMPDEST SWAP2 DUP2 PUSH1 0x1F DUP5 ADD SLT ISZERO PUSH2 0x2AD JUMPI DUP3 CALLDATALOAD SWAP2 PUSH8 0xFFFFFFFFFFFFFFFF DUP4 GT PUSH2 0x2AD JUMPI PUSH1 0x20 DUP4 DUP2 DUP7 ADD SWAP6 ADD ADD GT PUSH2 0x2AD JUMPI JUMP JUMPDEST SWAP1 SWAP2 PUSH1 0x20 PUSH32 0x8C5BE1E5EBEC7D5BD14F71427D1E84F3DD0314C0F7B2291E5B200AC8C7C3B925 SWAP2 PUSH1 0x1 DUP1 PUSH1 0xA0 SHL SUB DUP1 SWAP5 AND SWAP4 DUP5 PUSH0 MSTORE PUSH1 0x2 DUP4 MSTORE PUSH1 0x40 PUSH0 KECCAK256 SWAP6 AND SWAP5 DUP6 PUSH0 MSTORE DUP3 MSTORE DUP1 PUSH1 0x40 PUSH0 KECCAK256 SSTORE PUSH1 0x40 MLOAD SWAP1 DUP2 MSTORE LOG3 JUMP JUMPDEST SWAP1 SWAP2 PUSH1 0x20 PUSH0 DUP1 MLOAD PUSH1 0x20 PUSH2 0x2594 DUP4 CODECOPY DUP2 MLOAD SWAP2 MSTORE SWAP2 PUSH1 0x1 DUP1 PUSH1 0xA0 SHL SUB DUP1 SWAP5 AND SWAP4 PUSH0 SWAP6 DUP6 DUP8 MSTORE PUSH1 0x1 DUP5 MSTORE PUSH2 0x1CD1 DUP4 PUSH1 0x40 DUP10 KECCAK256 SLOAD PUSH2 0x2480 JUMP JUMPDEST DUP7 DUP9 MSTORE PUSH1 0x1 DUP6 MSTORE PUSH1 0x40 DUP9 KECCAK256 SSTORE AND SWAP5 DUP6 DUP2 MSTORE PUSH1 0x40 PUSH2 0x1CF1 DUP4 DUP3 DUP5 KECCAK256 SLOAD PUSH2 0x246B JUMP JUMPDEST SWAP2 DUP8 DUP2 MSTORE PUSH1 0x1 DUP6 MSTORE KECCAK256 SSTORE PUSH1 0x40 MLOAD SWAP1 DUP2 MSTORE LOG3 JUMP JUMPDEST ISZERO PUSH2 0x1D0B JUMPI JUMP JUMPDEST PUSH1 0x40 MLOAD PUSH3 0x461BCD PUSH1 0xE5 SHL DUP2 MSTORE PUSH1 0x20 PUSH1 0x4 DUP3 ADD MSTORE PUSH1 0xD PUSH1 0x24 DUP3 ADD MSTORE PUSH13 0x15111C995E0E881313D0D2D151 PUSH1 0x9A SHL PUSH1 0x44 DUP3 ADD MSTORE PUSH1 0x64 SWAP1 REVERT JUMPDEST DUP2 ISZERO PUSH2 0x1D4A JUMPI DIV SWAP1 JUMP JUMPDEST PUSH4 0x4E487B71 PUSH1 0xE0 SHL PUSH0 MSTORE PUSH1 0x12 PUSH1 0x4 MSTORE PUSH1 0x24 PUSH0 REVERT JUMPDEST PUSH0 DUP1 MLOAD PUSH1 0x20 PUSH2 0x2594 DUP4 CODECOPY DUP2 MLOAD SWAP2 MSTORE PUSH1 0x20 PUSH0 SWAP3 PUSH2 0x1D7B DUP6 DUP6 SLOAD PUSH2 0x246B JUMP JUMPDEST DUP5 SSTORE PUSH1 0x1 DUP1 PUSH1 0xA0 SHL SUB AND SWAP4 DUP5 DUP5 MSTORE PUSH1 0x1 DUP3 MSTORE PUSH2 0x1D9B DUP2 PUSH1 0x40 DUP7 KECCAK256 SLOAD PUSH2 0x246B JUMP JUMPDEST DUP6 DUP6 MSTORE PUSH1 0x1 DUP4 MSTORE PUSH1 0x40 DUP6 KECCAK256 SSTORE PUSH1 0x40 MLOAD SWAP1 DUP2 MSTORE LOG3 JUMP JUMPDEST DUP2 DUP2 MUL SWAP3 SWAP2 DUP2 ISZERO SWAP2 DUP5 DIV EQ OR ISZERO PUSH2 0x1DC3 JUMPI JUMP JUMPDEST PUSH4 0x4E487B71 PUSH1 0xE0 SHL PUSH0 MSTORE PUSH1 0x11 PUSH1 0x4 MSTORE PUSH1 0x24 PUSH0 REVERT JUMPDEST SWAP2 SWAP1 DUP3 ADD DUP1 SWAP3 GT PUSH2 0x1DC3 JUMPI JUMP JUMPDEST SWAP2 PUSH1 0x1 PUSH1 0x1 PUSH1 0x70 SHL SUB SWAP1 DUP2 DUP5 GT DUP1 ISZERO PUSH2 0x1F1B JUMPI JUMPDEST PUSH2 0x1EFD JUMPI PUSH4 0xFFFFFFFF SWAP4 PUSH1 0xC SLOAD PUSH1 0xE0 SHR DUP6 TIMESTAMP AND SUB SWAP2 DUP6 DUP4 GT PUSH2 0x1DC3 JUMPI PUSH32 0x1C411E9A96E071241C2F21F7726B17AE89E3CAB4C78BE50E062B03A9FFFBBAD1 SWAP7 PUSH1 0x40 SWAP7 DUP6 SWAP5 AND DUP1 ISZERO ISZERO DUP1 PUSH2 0x1EF2 JUMPI JUMPDEST DUP1 PUSH2 0x1EE7 JUMPI JUMPDEST PUSH2 0x1E8E JUMPI JUMPDEST POP POP POP PUSH1 0x70 SWAP4 DUP5 SHL PUSH1 0x1 PUSH1 0x70 SHL PUSH1 0x1 PUSH1 0xE0 SHL SUB AND SWAP2 AND SWAP1 DUP2 OR TIMESTAMP PUSH1 0xE0 SHL PUSH1 0x1 PUSH1 0x1 PUSH1 0xE0 SHL SUB NOT AND OR PUSH1 0xC DUP2 SWAP1 SSTORE DUP5 MLOAD SWAP2 DUP3 MSTORE SWAP1 SWAP3 SHR AND PUSH1 0x20 DUP3 ADD MSTORE LOG1 JUMP JUMPDEST PUSH2 0x1EDC SWAP3 PUSH2 0x1ED4 SWAP3 PUSH1 0x1 PUSH1 0x1 PUSH1 0xE0 SHL SUB SWAP2 PUSH2 0x1EBE SWAP2 SWAP1 PUSH2 0x1EB9 SWAP1 PUSH2 0x1ECC PUSH2 0x1EC4 DUP8 DUP8 DUP8 DUP6 DUP8 DUP10 PUSH2 0x2546 JUMP JUMPDEST PUSH2 0x2575 JUMP JUMPDEST AND PUSH2 0x1DB0 JUMP JUMPDEST PUSH1 0xD SLOAD PUSH2 0x1DD7 JUMP JUMPDEST PUSH1 0xD SSTORE PUSH2 0x2546 JUMP JUMPDEST PUSH1 0xE SLOAD PUSH2 0x1DD7 JUMP JUMPDEST PUSH1 0xE SSTORE PUSH0 DUP1 DUP1 PUSH2 0x1E50 JUMP JUMPDEST POP DUP5 DUP3 AND ISZERO ISZERO PUSH2 0x1E4B JUMP JUMPDEST POP DUP5 DUP4 AND ISZERO ISZERO PUSH2 0x1E45 JUMP JUMPDEST PUSH1 0x44 DUP5 DUP5 PUSH1 0x40 MLOAD SWAP2 PUSH4 0x52939D77 PUSH1 0xE0 SHL DUP4 MSTORE PUSH1 0x4 DUP4 ADD MSTORE PUSH1 0x24 DUP3 ADD MSTORE REVERT JUMPDEST POP DUP2 DUP4 GT PUSH2 0x1DF8 JUMP JUMPDEST SWAP1 DUP2 PUSH1 0x20 SWAP2 SUB SLT PUSH2 0x2AD JUMPI MLOAD PUSH1 0x1 PUSH1 0x1 PUSH1 0xA0 SHL SUB DUP2 AND DUP2 SUB PUSH2 0x2AD JUMPI SWAP1 JUMP JUMPDEST PUSH1 0x5 SLOAD PUSH1 0x40 MLOAD PUSH3 0x2FCFCB PUSH1 0xE3 SHL DUP2 MSTORE SWAP3 SWAP4 SWAP3 SWAP2 SWAP1 PUSH1 0x1 PUSH1 0x1 PUSH1 0xA0 SHL SUB SWAP1 PUSH1 0x20 SWAP1 DUP5 SWAP1 PUSH1 0x4 SWAP1 DUP3 SWAP1 DUP6 AND GAS STATICCALL SWAP3 DUP4 ISZERO PUSH2 0x2092 JUMPI PUSH0 SWAP4 PUSH2 0x2072 JUMPI JUMPDEST POP DUP3 AND ISZERO ISZERO SWAP4 PUSH1 0xF SLOAD SWAP2 DUP6 PUSH0 EQ PUSH2 0x2062 JUMPI DUP3 PUSH2 0x1F99 JUMPI JUMPDEST POP POP POP POP JUMP JUMPDEST PUSH2 0x1487 PUSH2 0x1FB6 SWAP2 PUSH2 0x1FBC SWAP4 PUSH1 0x1 PUSH1 0x1 PUSH1 0x70 SHL SUB DUP1 SWAP2 AND SWAP2 AND PUSH2 0x2510 JUMP JUMPDEST SWAP2 PUSH2 0x23C0 JUMP JUMPDEST SWAP1 DUP2 DUP2 GT PUSH2 0x1FCB JUMPI JUMPDEST DUP1 PUSH2 0x1F93 JUMP JUMPDEST PUSH2 0x1FDA PUSH0 SLOAD PUSH2 0x1168 DUP5 DUP5 PUSH2 0x2480 JUMP JUMPDEST SWAP1 PUSH1 0x5 DUP2 MUL SWAP1 DUP1 DUP3 DIV PUSH1 0x5 EQ DUP2 ISZERO OR ISZERO PUSH2 0x1DC3 JUMPI PUSH1 0x5 DUP3 DIV SUB PUSH2 0x2026 JUMPI PUSH2 0x200A SWAP3 PUSH2 0x2004 SWAP2 PUSH2 0x246B JUMP JUMPDEST SWAP1 PUSH2 0x1D40 JUMP JUMPDEST DUP1 PUSH2 0x2016 JUMPI JUMPDEST DUP1 PUSH2 0x1FC5 JUMP JUMPDEST PUSH2 0x201F SWAP2 PUSH2 0x1D5E JUMP JUMPDEST PUSH0 DUP1 PUSH2 0x2010 JUMP JUMPDEST PUSH1 0x40 MLOAD PUSH3 0x461BCD PUSH1 0xE5 SHL DUP2 MSTORE PUSH1 0x20 PUSH1 0x4 DUP3 ADD MSTORE PUSH1 0x14 PUSH1 0x24 DUP3 ADD MSTORE PUSH20 0x64732D6D6174682D6D756C2D6F766572666C6F77 PUSH1 0x60 SHL PUSH1 0x44 DUP3 ADD MSTORE PUSH1 0x64 SWAP1 REVERT JUMPDEST POP POP SWAP1 POP PUSH2 0x206C JUMPI JUMP JUMPDEST PUSH0 PUSH1 0xF SSTORE JUMP JUMPDEST PUSH2 0x208B SWAP2 SWAP4 POP PUSH1 0x20 RETURNDATASIZE DUP2 GT PUSH2 0x50C JUMPI PUSH2 0x4FE DUP2 DUP4 PUSH2 0x1B3D JUMP JUMPDEST SWAP2 PUSH0 PUSH2 0x1F7C JUMP JUMPDEST PUSH1 0x40 MLOAD RETURNDATASIZE PUSH0 DUP3 RETURNDATACOPY RETURNDATASIZE SWAP1 REVERT JUMPDEST RETURNDATASIZE ISZERO PUSH2 0x20D7 JUMPI RETURNDATASIZE SWAP1 PUSH8 0xFFFFFFFFFFFFFFFF DUP3 GT PUSH2 0x1B29 JUMPI PUSH1 0x40 MLOAD SWAP2 PUSH2 0x20CC PUSH1 0x1F DUP3 ADD PUSH1 0x1F NOT AND PUSH1 0x20 ADD DUP5 PUSH2 0x1B3D JUMP JUMPDEST DUP3 MSTORE RETURNDATASIZE PUSH0 PUSH1 0x20 DUP5 ADD RETURNDATACOPY JUMP JUMPDEST PUSH1 0x60 SWAP1 JUMP JUMPDEST SWAP1 DUP2 PUSH1 0x20 SWAP2 SUB SLT PUSH2 0x2AD JUMPI MLOAD DUP1 ISZERO ISZERO DUP2 SUB PUSH2 0x2AD JUMPI SWAP1 JUMP JUMPDEST PUSH0 SWAP3 SWAP2 DUP4 PUSH2 0x2169 PUSH2 0x2177 DUP3 SWAP6 PUSH32 0x7472616E7366657228616464726573732C75696E743235362900000000000000 PUSH1 0x20 PUSH1 0x40 MLOAD PUSH2 0x212F DUP2 PUSH2 0x1B0D JUMP JUMPDEST PUSH1 0x19 DUP2 MSTORE ADD MSTORE PUSH1 0x40 MLOAD PUSH4 0xA9059CBB PUSH1 0xE0 SHL PUSH1 0x20 DUP3 ADD SWAP1 DUP2 MSTORE PUSH1 0x1 PUSH1 0x1 PUSH1 0xA0 SHL SUB SWAP1 SWAP7 AND PUSH1 0x24 DUP3 ADD MSTORE PUSH1 0x44 DUP2 ADD SWAP2 SWAP1 SWAP2 MSTORE SWAP2 DUP3 SWAP1 PUSH1 0x64 DUP3 ADD SWAP1 JUMP JUMPDEST SUB PUSH1 0x1F NOT DUP2 ADD DUP4 MSTORE DUP3 PUSH2 0x1B3D JUMP JUMPDEST MLOAD SWAP3 GAS CALL PUSH2 0x2183 PUSH2 0x209D JUMP JUMPDEST DUP2 PUSH2 0x21D6 JUMPI JUMPDEST POP ISZERO PUSH2 0x2191 JUMPI JUMP JUMPDEST PUSH1 0x40 MLOAD PUSH3 0x461BCD PUSH1 0xE5 SHL DUP2 MSTORE PUSH1 0x20 PUSH1 0x4 DUP3 ADD MSTORE PUSH1 0x1C PUSH1 0x24 DUP3 ADD MSTORE PUSH32 0x54447265783A2045524332305F5452414E534645525F4641494C454400000000 PUSH1 0x44 DUP3 ADD MSTORE PUSH1 0x64 SWAP1 REVERT JUMPDEST DUP1 MLOAD DUP1 ISZERO SWAP3 POP DUP3 ISZERO PUSH2 0x21EB JUMPI JUMPDEST POP POP PUSH0 PUSH2 0x2189 JUMP JUMPDEST PUSH2 0x21FE SWAP3 POP PUSH1 0x20 DUP1 SWAP2 DUP4 ADD ADD SWAP2 ADD PUSH2 0x20DC JUMP JUMPDEST PUSH0 DUP1 PUSH2 0x21E3 JUMP JUMPDEST SWAP1 PUSH1 0x40 SWAP5 DUP6 MLOAD SWAP5 PUSH1 0x60 DUP7 ADD SWAP6 PUSH8 0xFFFFFFFFFFFFFFFF SWAP7 DUP2 DUP2 LT DUP9 DUP3 GT OR PUSH2 0x1B29 JUMPI DUP9 MSTORE PUSH1 0x37 DUP2 MSTORE PUSH32 0x2C75696E743235362C75696E743235362C627974657329000000000000000000 DUP9 PUSH1 0x20 DUP4 ADD SWAP3 PUSH32 0x736166655472616E7366657246726F6D28616464726573732C61646472657373 DUP5 MSTORE ADD MSTORE PUSH1 0x37 PUSH4 0xFFFFFFFF PUSH1 0xE0 SHL SWAP2 KECCAK256 AND SWAP3 DUP8 MLOAD SWAP6 PUSH1 0x20 DUP8 ADD SWAP5 DUP6 MSTORE PUSH1 0x1 DUP1 PUSH1 0xA0 SHL SUB DUP1 SWAP3 AND PUSH1 0x24 DUP9 ADD MSTORE AND PUSH1 0x44 DUP7 ADD MSTORE PUSH1 0x64 DUP6 ADD MSTORE PUSH1 0x84 DUP5 ADD MSTORE PUSH1 0xA0 PUSH1 0xA4 DUP5 ADD MSTORE PUSH1 0x2 PUSH1 0xC4 DUP5 ADD MSTORE PUSH2 0x60F PUSH1 0xF3 SHL PUSH1 0xE4 DUP5 ADD MSTORE PUSH1 0xE4 DUP4 MSTORE PUSH2 0x120 DUP4 ADD SWAP4 DUP4 DUP6 LT SWAP1 DUP6 GT OR PUSH2 0x1B29 JUMPI PUSH0 DUP1 SWAP5 SWAP4 DUP2 SWAP5 DUP8 MSTORE MLOAD SWAP3 GAS CALL PUSH2 0x22F1 PUSH2 0x209D JUMP JUMPDEST DUP2 PUSH2 0x2343 JUMPI JUMPDEST POP ISZERO PUSH2 0x2300 JUMPI POP JUMP JUMPDEST MLOAD PUSH3 0x461BCD PUSH1 0xE5 SHL DUP2 MSTORE PUSH1 0x20 PUSH1 0x4 DUP3 ADD MSTORE PUSH1 0x1E PUSH1 0x24 DUP3 ADD MSTORE PUSH32 0x54447265783A20455243313135355F5452414E534645525F4641494C45440000 PUSH1 0x44 DUP3 ADD MSTORE PUSH1 0x64 SWAP1 REVERT JUMPDEST DUP1 MLOAD DUP1 ISZERO SWAP3 POP DUP3 ISZERO PUSH2 0x2358 JUMPI JUMPDEST POP POP PUSH0 PUSH2 0x22F7 JUMP JUMPDEST PUSH2 0x236B SWAP3 POP PUSH1 0x20 DUP1 SWAP2 DUP4 ADD ADD SWAP2 ADD PUSH2 0x20DC JUMP JUMPDEST PUSH0 DUP1 PUSH2 0x2350 JUMP JUMPDEST DUP1 MLOAD ISZERO PUSH2 0x237F JUMPI PUSH1 0x20 ADD SWAP1 JUMP JUMPDEST PUSH4 0x4E487B71 PUSH1 0xE0 SHL PUSH0 MSTORE PUSH1 0x32 PUSH1 0x4 MSTORE PUSH1 0x24 PUSH0 REVERT JUMPDEST SWAP2 SWAP1 DUP3 SUB SWAP2 DUP3 GT PUSH2 0x1DC3 JUMPI JUMP JUMPDEST PUSH1 0x1 PUSH1 0x1 PUSH1 0xE0 SHL SUB NOT AND PUSH4 0x36372B07 PUSH1 0xE0 SHL EQ PUSH2 0x23BB JUMPI PUSH0 SWAP1 JUMP JUMPDEST PUSH1 0x1 SWAP1 JUMP JUMPDEST SWAP1 PUSH0 PUSH1 0x3 DUP4 GT ISZERO PUSH2 0x240C JUMPI POP DUP2 PUSH1 0x1 SWAP1 DUP1 DUP3 SHR DUP3 DUP2 ADD DUP1 SWAP2 GT PUSH2 0x1DC3 JUMPI SWAP2 SWAP1 JUMPDEST DUP5 DUP4 LT PUSH2 0x23EC JUMPI POP POP POP JUMP JUMPDEST SWAP1 SWAP2 SWAP4 POP PUSH2 0x2403 DUP5 PUSH2 0x23FE DUP2 DUP5 PUSH2 0x1D40 JUMP JUMPDEST PUSH2 0x1DD7 JUMP JUMPDEST DUP3 SHR SWAP2 SWAP1 PUSH2 0x23E0 JUMP JUMPDEST SWAP2 PUSH2 0x2413 JUMPI JUMP JUMPDEST PUSH1 0x1 SWAP2 POP JUMP JUMPDEST SWAP1 PUSH2 0x3E8 DUP3 ADD SWAP2 DUP3 DUP2 GT PUSH2 0x1DC3 JUMPI DUP3 LT PUSH2 0x242F JUMPI JUMP JUMPDEST PUSH1 0x40 MLOAD PUSH3 0x461BCD PUSH1 0xE5 SHL DUP2 MSTORE PUSH1 0x20 PUSH1 0x4 DUP3 ADD MSTORE PUSH1 0x14 PUSH1 0x24 DUP3 ADD MSTORE PUSH20 0x64732D6D6174682D6164642D6F766572666C6F77 PUSH1 0x60 SHL PUSH1 0x44 DUP3 ADD MSTORE PUSH1 0x64 SWAP1 REVERT JUMPDEST SWAP2 SWAP1 PUSH2 0x2477 SWAP1 DUP4 PUSH2 0x1DD7 JUMP JUMPDEST SWAP2 DUP3 LT PUSH2 0x242F JUMPI JUMP JUMPDEST SWAP2 SWAP1 PUSH2 0x248C SWAP1 DUP4 PUSH2 0x2393 JUMP JUMPDEST SWAP2 DUP3 GT PUSH2 0x2495 JUMPI JUMP JUMPDEST PUSH1 0x40 MLOAD PUSH3 0x461BCD PUSH1 0xE5 SHL DUP2 MSTORE PUSH1 0x20 PUSH1 0x4 DUP3 ADD MSTORE PUSH1 0x15 PUSH1 0x24 DUP3 ADD MSTORE PUSH21 0x64732D6D6174682D7375622D756E646572666C6F77 PUSH1 0x58 SHL PUSH1 0x44 DUP3 ADD MSTORE PUSH1 0x64 SWAP1 REVERT JUMPDEST SWAP1 PUSH2 0x3E8 SWAP2 DUP3 DUP2 MUL SWAP3 DUP2 DUP5 DIV DUP2 EQ DUP3 ISZERO OR ISZERO PUSH2 0x1DC3 JUMPI DUP4 DIV SUB PUSH2 0x2026 JUMPI JUMP JUMPDEST SWAP1 PUSH1 0x3 DUP3 MUL SWAP2 DUP1 DUP4 DIV PUSH1 0x3 EQ DUP2 ISZERO OR ISZERO PUSH2 0x1DC3 JUMPI PUSH1 0x3 DUP4 DIV SUB PUSH2 0x2026 JUMPI JUMP JUMPDEST PUSH0 SWAP3 SWAP2 DUP1 ISZERO SWAP2 DUP3 ISZERO PUSH2 0x2526 JUMPI JUMPDEST POP POP ISZERO PUSH2 0x2026 JUMPI JUMP JUMPDEST SWAP2 POP SWAP3 POP PUSH2 0x253E PUSH2 0x2537 DUP5 DUP4 PUSH2 0x1DB0 JUMP JUMPDEST SWAP4 DUP5 PUSH2 0x1D40 JUMP JUMPDEST EQ PUSH0 DUP1 PUSH2 0x251D JUMP JUMPDEST PUSH1 0x1 PUSH1 0x70 SHL PUSH1 0x1 PUSH1 0xE0 SHL SUB PUSH1 0x70 DUP3 SWAP1 SHL AND SWAP1 PUSH1 0x1 PUSH1 0x1 PUSH1 0x70 SHL SUB AND DUP1 DUP3 DIV PUSH1 0x1 PUSH1 0x70 SHL EQ SWAP1 ISZERO OR ISZERO PUSH2 0x1DC3 JUMPI SWAP1 JUMP JUMPDEST SWAP1 PUSH1 0x1 PUSH1 0x1 PUSH1 0x70 SHL SUB AND SWAP1 DUP2 ISZERO PUSH2 0x1D4A JUMPI PUSH1 0x1 PUSH1 0x1 PUSH1 0xE0 SHL SUB AND DIV SWAP1 JUMP INVALID 0xDD CALLCODE MSTORE 0xAD SHL 0xE2 0xC8 SWAP12 PUSH10 0xC2B068FC378DAA952BA7 CALL PUSH4 0xC4A11628 CREATE2 GAS 0x4D CREATE2 0x23 0xB3 0xEF LOG2 PUSH5 0x6970667358 0x22 SLT KECCAK256 DIV 0xB3 DUP3 0xAA 0xD2 AND 0xC5 0x2B JUMPDEST PUSH20 0x9A9EB862DE60ADAA1FEBEBBEA706B3083DA9D3A1 PUSH20 0x4E64736F6C63430008150033A264697066735822 SLT KECCAK256 0xEA 0xC1 0xB5 0xD8 KECCAK256 CALLDATASIZE 0xAE ADD RETURNDATASIZE 0xD4 0x5C 0xAF PUSH10 0x83E74DDF6F15A739CB3C SELFDESTRUCT 0xB2 PUSH14 0x59231B6518C464736F6C63430008 ISZERO STOP CALLER "
		},
		"gasEstimates": {
			"creation": {
				"codeDepositCost": "2387400",
				"executionCost": "infinite",
				"totalCost": "infinite"
			},
			"external": {
				"allPairs(uint256)": "4479",
				"allPairsLength()": "2356",
				"createPair(address,address,uint256,uint256,uint256)": "infinite",
				"feeTo()": "2270",
				"feeToSetter()": "2314",
				"getPair(address,address,uint256)": "2771",
				"govBr()": "2446",
				"setFeeTo(address)": "26763",
				"setFeeToSetter(address)": "24637"
			},
			"internal": {
				"_isGov(address)": "infinite"
			}
		},
		"methodIdentifiers": {
			"allPairs(uint256)": "1e3dd18b",
			"allPairsLength()": "574f2ba3",
			"createPair(address,address,uint256,uint256,uint256)": "4b77fa8b",
			"feeTo()": "017e7e58",
			"feeToSetter()": "094b7415",
			"getPair(address,address,uint256)": "5eced480",
			"govBr()": "ae062d76",
			"setFeeTo(address)": "f46901ed",
			"setFeeToSetter(address)": "a2e74af6"
		}
	},
	"abi": [
		{
			"inputs": [
				{
					"internalType": "address",
					"name": "tokenA",
					"type": "address"
				},
				{
					"internalType": "address",
					"name": "tokenB",
					"type": "address"
				},
				{
					"internalType": "uint256",
					"name": "amount0",
					"type": "uint256"
				},
				{
					"internalType": "uint256",
					"name": "amount1",
					"type": "uint256"
				},
				{
					"internalType": "uint256",
					"name": "id",
					"type": "uint256"
				}
			],
			"name": "createPair",
			"outputs": [
				{
					"internalType": "address",
					"name": "pair",
					"type": "address"
				}
			],
			"stateMutability": "nonpayable",
			"type": "function"
		},
		{
			"inputs": [
				{
					"internalType": "address",
					"name": "_feeToSetter",
					"type": "address"
				},
				{
					"internalType": "address",
					"name": "_govBR",
					"type": "address"
				}
			],
			"stateMutability": "nonpayable",
			"type": "constructor"
		},
		{
			"inputs": [],
			"name": "Factory_Forbidden",
			"type": "error"
		},
		{
			"inputs": [],
			"name": "Factory_IdenticalAddresses",
			"type": "error"
		},
		{
			"inputs": [],
			"name": "Factory_PairExists",
			"type": "error"
		},
		{
			"inputs": [],
			"name": "Factory_ZeroAddress",
			"type": "error"
		},
		{
			"inputs": [],
			"name": "Factory_ZeroAmount",
			"type": "error"
		},
		{
			"anonymous": false,
			"inputs": [
				{
					"indexed": true,
					"internalType": "address",
					"name": "token0",
					"type": "address"
				},
				{
					"indexed": true,
					"internalType": "address",
					"name": "token1",
					"type": "address"
				},
				{
					"indexed": false,
					"internalType": "address",
					"name": "pair",
					"type": "address"
				},
				{
					"indexed": false,
					"internalType": "uint256",
					"name": "id",
					"type": "uint256"
				},
				{
					"indexed": false,
					"internalType": "uint256",
					"name": "amount0",
					"type": "uint256"
				},
				{
					"indexed": false,
					"internalType": "uint256",
					"name": "amount1",
					"type": "uint256"
				},
				{
					"indexed": false,
					"internalType": "uint256",
					"name": "",
					"type": "uint256"
				}
			],
			"name": "PairCreated",
			"type": "event"
		},
		{
			"inputs": [
				{
					"internalType": "address",
					"name": "_feeTo",
					"type": "address"
				}
			],
			"name": "setFeeTo",
			"outputs": [],
			"stateMutability": "nonpayable",
			"type": "function"
		},
		{
			"inputs": [
				{
					"internalType": "address",
					"name": "_feeToSetter",
					"type": "address"
				}
			],
			"name": "setFeeToSetter",
			"outputs": [],
			"stateMutability": "nonpayable",
			"type": "function"
		},
		{
			"inputs": [
				{
					"internalType": "uint256",
					"name": "",
					"type": "uint256"
				}
			],
			"name": "allPairs",
			"outputs": [
				{
					"internalType": "address",
					"name": "",
					"type": "address"
				}
			],
			"stateMutability": "view",
			"type": "function"
		},
		{
			"inputs": [],
			"name": "allPairsLength",
			"outputs": [
				{
					"internalType": "uint256",
					"name": "",
					"type": "uint256"
				}
			],
			"stateMutability": "view",
			"type": "function"
		},
		{
			"inputs": [],
			"name": "feeTo",
			"outputs": [
				{
					"internalType": "address",
					"name": "",
					"type": "address"
				}
			],
			"stateMutability": "view",
			"type": "function"
		},
		{
			"inputs": [],
			"name": "feeToSetter",
			"outputs": [
				{
					"internalType": "address",
					"name": "",
					"type": "address"
				}
			],
			"stateMutability": "view",
			"type": "function"
		},
		{
			"inputs": [
				{
					"internalType": "address",
					"name": "",
					"type": "address"
				},
				{
					"internalType": "address",
					"name": "",
					"type": "address"
				},
				{
					"internalType": "uint256",
					"name": "",
					"type": "uint256"
				}
			],
			"name": "getPair",
			"outputs": [
				{
					"internalType": "address",
					"name": "",
					"type": "address"
				}
			],
			"stateMutability": "view",
			"type": "function"
		},
		{
			"inputs": [],
			"name": "govBr",
			"outputs": [
				{
					"internalType": "address",
					"name": "",
					"type": "address"
				}
			],
			"stateMutability": "view",
			"type": "function"
		}
	]
}